:100000001DC100000C941D160C94F2150C94C7151C
:100010000C949C150C9471150C9446150C941B159E
:100020000C94F0143CC100003AC1000038C100003B
:1000300036C100000C94001732C1000030C100002E
:100040002EC100002CC100002AC1000028C1000000
:1000500026C1000024C1000022C100000C940C2C19
:100060001EC100000C94EF1A0C94C61A18C10000AF
:1000700016C1000014C1000012C1000010C1000030
:100080000EC100000CC100000AC1000008C1000040
:1000900006C1000004C1000002C100000C94251B31
:1000A000FEC00000FCC00000FAC00000F8C0000064
:1000B000F6C00000F4C00000F2C00000F0C0000074
:1000C000EEC00000ECC00000EAC00000E8C0000084
:1000D000E6C00000E4C00000E2C00000E0C0000094
:1000E000DEC0000096166016681674168116A216F9
:1000F000AF16172A1A2A092A0D2A132A512A1E2A4C
:10010000222A282A2C2A302A362A3A2A3E2A512AFA
:10011000442A482A4C2A0200002100240027002AF1
:10012000002D003000330001010000040107010A26
:100130000100002200250028002B002E0031003491
:100140000002010000050108010B0100002000234E
:1001500000260029002C002F0032000001000003BF
:10016000010601090105050505070508080808023B
:100170000202020A0A080804040404010101010140
:100180000101010303030303030303040707070C2F
:100190000C0C0C0C0C0C0C020202020606060606E5
:1001A0000606060B0B0B0B0B0B0B0B010210202092
:1001B00008081020401020408002010201080402BB
:1001C0000101020408102040808040201008040231
:1001D000018004020180402010080402010804028A
:1001E0000101020408102040800102040810204090
:1001F0008000000A0B02090C0D0E08070304010021
:1002000000000000000000000000000000000000EE
:1002100000000000000000000000000000121110AB
:1002200000000000000000000000000000000000CE
:100230000000000000000000CF2FC92F11241FBEB6
:10024000CFEFD1E2DEBFCDBF00E00CBF26E0A2EFD2
:10025000B4E001C01D92AE3DB207E1F714E0A0E0AA
:10026000B2E0EEEBF1E700E00BBF02C007900D92A9
:10027000A23FB107D9F711E0CDE1D1E000E006C01F
:1002800021970109802FFE010E941235CC31D10740
:1002900080E00807A9F70E943D300C94CE38B0CE1C
:1002A0002F923F924F925F926F927F928F929F9286
:1002B000AF92BF92CF92DF92EF92FF920F931F9374
:1002C000CF93DF93CDB7DEB7CC54D1090FB6F894F6
:1002D000DEBF0FBECDBF0E94E72B8B019C01609358
:1002E000C8061093C9062093CA063093CB06109215
:1002F000CC061092CD061092CE061092CF06209119
:10030000BB063091BC063DAB2CAB190133E0230E8C
:10031000311CAE014F5F5F4F2A018091B906909169
:10032000BA06DC01ED91FC910084F185E02D199570
:10033000892B11F40C94BE118091B5069091B606EC
:100340008230910511F00C94540BC1010E94572585
:10035000813609F048C00FEF10E020E030E040E0C7
:1003600050E060E070E0C1010E94542AE22E20E0DB
:1003700030E040E050E060E070E0C1010E94542AAB
:10038000F22E0E2D10E06DEE72E0C2010E94B51447
:10039000B201CE0108960E9477146DEC72E0CE0196
:1003A00008960E94852DB8010E94242D63EE72E00C
:1003B0000E94852D6F2D70E00E94242D6BEE72E05F
:1003C0000E94852DBC018091B9069091BA060E94C9
:1003D0005727CE0108960E949C2DC2010E949C2D99
:1003E000F801F0829ACF8236E1F505E410E020E0D2
:1003F00030E040E050E060E070E0C1010E94542A2B
:10040000F22E01E020E030E040E050E060E070E0FB
:10041000C1010E94542A122F8F2D0E94C22761E031
:100420008F2D0E948C2B61E0111101C060E08F2D97
:100430000E945E2B6DEE72E0C2010E94B514B20103
:10044000CE0108960E9477146EEE72E0CE010896F7
:100450000E94852D6F2D0E94572D6FEF72E00C9436
:10046000770A803709F077C105E410E020E030E03A
:1004700040E050E060E070E0C1010E94542A822E0A
:1004800001E020E030E040E050E060E070E0C101D9
:100490000E94542A99249394A0E00E94993609F46A
:1004A000912C0FEF1FEF2FEF3FEF4FEF5FEF6FEF4D
:1004B0007FEFC1010E94542A28A33CA34DA35EA351
:1004C0002CA73DA74EA75FA72FEF3FEF4FEF5FEFA2
:1004D0006FEF7FEFC1010E94542A2FA338A749A7CD
:1004E0005AA728AB39AB4AAB5BAB2FEF3FEF4FEFCF
:1004F0005FEF6FEF7FEFC1010E94542A39015A016B
:1005000069017A01882D0E94C22788E290E00E944A
:10051000B9368C0181E892E0D80111969C938E93B4
:1005200012968C92129781E013968C9313971496DF
:100530008C93E1E09301A50160E070E080E090E041
:10054000A0E00E94993609F4E0E0D8011596EC93FA
:10055000159716969C92169717969C921797189631
:100560001C92189719961C9219971A961C921A9712
:100570001B961C921B971C961C921C971D961C92F6
:100580001D971E961C921E971F961C921F97E8A1FE
:100590005096EC935097FCA15196FC9351972DA146
:1005A00052962C9352973EA153963C935397549650
:1005B0001C92549755961C92559756961C92569796
:1005C00057961C9257974FA158964C93589758A5F9
:1005D00059965C93599789A55A968C935A979AA5E0
:1005E0005B969C935B975C961C925C975D961C92C5
:1005F0005D975E961C925E975F961C925F979096B1
:100600006C92909791967C9291979296AC929297D9
:100610009396BC92939794961C92949795961C925D
:10062000959796961C92969797961C9261E0882DC6
:100630000E948C2B1A830983682D70E0A2018DE63D
:1006400096E00E944D2EC114D104E104F10441F45E
:1006500067E073E0CE010E960E94B51410E019C059
:100660006DEE72E0CE0144960E94B514BE016C5E40
:100670007F4FCE014A960E947714B701A601CE01A2
:100680004A960E94BC2CBC01CE010E960E947714A3
:1006900011E06DEE72E0C2010E94B514B201CE010C
:1006A00008960E94771460E173E0CE0108960E94DC
:1006B000852D682D0E94572D60E273E00E94852DE4
:1006C000692D70E00E94242D6EE273E00E94852D5A
:1006D0004CA55DA56EA57FA50E94BC2C6DE373E0C3
:1006E0000E94852D48A959A96AA97BA90E94BC2C02
:1006F0006DE473E00E94852D7C014A895B896E85DB
:100700007F850E947D2C811103C0C7010E94AA2C05
:100710006BEE72E0C7010E94852DBC018091B90685
:100720009091BA060E945727CE0108960E949C2DF0
:10073000C2010E949C2DCE010E960E949C2D112379
:1007400009F4EBCDCE014A960E949C2DCE01449631
:100750000E949C2DE2CD833609F053C205E410E0DF
:1007600020E030E040E050E060E070E0C1010E9435
:10077000542A722E0FEF1FEF2FEF3FEF4FEF5FEF77
:100780006FEF7FEFC1010E94542A28A33CA34DA321
:100790005EA329AF3AAF4BAF5CAF2FEF3FEF4FEF08
:1007A0005FEF6FEF7FEFC1010E94542A2FA338A79C
:1007B000642E59A72DAF3EAF4FAF21965FAF219763
:1007C0002FEF3FEF4FEF5FEF6FEF7FEFC1010E9421
:1007D000542A2AA73CA74DA75EA722962FAF22979F
:1007E00023963FAF239724964FAF249725965FAF6C
:1007F00025972FEF3FEF4FEF5FEF6FEF7FEFC101D7
:100800000E94542A2FA738AB49AB5AAB26962FAF7C
:10081000269727963FAF279728964FAF2897299678
:100820005FAF29972FEF3FEF4FEF5FEF6FEF7FEF56
:10083000C1010E94542A79018A012A962FAF2A9772
:100840002B96FFAE2B972C964FAF2C972D961FAF64
:100850002D97872D0E94C22787E490E00E94B93629
:100860004C018BE592E0D40111969C938E931296E5
:100870007C92129781E014968C93149715968C9322
:10088000159716968C931697E8A15F96EC935F9751
:10089000FCA19096FC9390972DA191962C93919703
:1008A0003EA192963C93929793961C92939794961E
:1008B0001C92949795961C92959796961C92969753
:1008C0004FA197964C93979758A598965C939897B5
:1008D00099966C92999789A59A968C939A979B96DC
:1008E0001C929B979C961C929C979D961C929D9700
:1008F0009E961C929E979AA59F969C939F97ECA577
:10090000D096EC93D097FDA5D196FC93D1972EA5C8
:10091000D2962C93D297D3961C92D397D4961C92AE
:10092000D497D5961C92D597D6961C92D6973FA56C
:10093000D7963C93D79748A9D8964C93D89759A95E
:10094000D9965C93D9978AA9DA968C93DA97DB9635
:100950001C92DB97DC961C92DC97DD961C92DD974F
:10096000DE961C9261E0872D0E948C2B872D0E94C1
:10097000362B21E0892B09F420E0D40113962C9327
:10098000EBAAFEAA0FAB18AF9701A80160E070E0D8
:1009900080E090E0A0E00E94993629F4B1E0BBAB82
:1009A0001EAA1FAA18AE2FA138A5462D59A560E092
:1009B00070E080E090E0A8A0BCA0CDA0DEA0E12C7B
:1009C000F12C00E010E00E94903659F050F00E94A7
:1009D00087360E941034F401678B708F818F928F5D
:1009E0001CC028A13CA14DA15EA160E070E080E0A8
:1009F00090E0AFA0B8A4C62CD9A4E12CF12C00E063
:100A000010E00E9487360E941034DC01CB01B05800
:100A1000F401878B908FA18FB28F2BA93EA94FA98C
:100A200058AD60E070E080E090E00E94103468A370
:100A300079A38AA39BA39B01AC01D40157966D9126
:100A40007D918D919C915A970E943D33F401678B63
:100A5000708F818F928F2FA538A949A95AA960E07C
:100A600070E080E090E0AAA4BCA4CDA4DEA4E12CB8
:100A7000F12C00E010E00E94903669F060F00E94D6
:100A800087360E941034D4015B966D937D938D93CD
:100A90009C935E971CC02AA53CA54DA55EA560E071
:100AA00070E080E090E0AFA4B8A8C9A8DAA8E12C73
:100AB000F12C00E010E00E9487360E941034DC0127
:100AC000CB01B058F401838F948FA58FB68F28A1E6
:100AD00039A14AA15BA1D4015B966D917D918D9165
:100AE0009C915E970E943D33F401638F748F858FD4
:100AF000968FFF962BA9D401DF962C933EA93183C4
:100B00004FA9428358AD53831482158216821782EF
:100B10009A828982672D70E0A2018DE696E00E949C
:100B20004D2E6DEE72E0C2010E94B514B201CE01ED
:100B300008960E9477146BE573E0CE0108960E9438
:100B4000852D672D0E94572D6BE673E00E94852D41
:100B500049AD5AAD6BAD7CAD0E94BC2C60E873E032
:100B60000E94852D4DAD5EAD6FAD21967FAD219775
:100B70000E94BC2C64E973E00E94852D22964FAD43
:100B8000229723965FAD239724966FAD24972596E1
:100B90007FAD25970E94BC2C6AEA73E00E94852DE8
:100BA00026964FAD269727965FAD279728966FAD6F
:100BB000289729967FAD29970E94BC2C6FEB73E094
:100BC0000E94852D2A964FAD2A972B965FAD2B97C5
:100BD0002C966FAD2C972D967FAD2D970E94BC2C37
:100BE0006BEE72E00E94852DBC018091B906909158
:100BF000BA060E945727CE0108960E949C2DC2017A
:100C0000A7CD8137B9F50FEF1FEF2FEF3FEF4FEF74
:100C10005FEF6FEF7FEFC1010E94542AC22ED32EE7
:100C2000E42EF52E88E1C816D104E104F10428F47D
:100C300098E1C92ED12CE12CF12C8CA99DA90E9400
:100C40006D27C701B6010E9497310E9494266DEE70
:100C500072E0C2010E94B514B201CE0108960E9452
:100C600077146AEC73E0CE0108960E94852DB701D7
:100C7000A601B4CF873709F062C000E110E020E0A0
:100C800030E040E050E060E070E0C1010E94542A92
:100C9000D22E0FEF1FEF2FEF3FEF4FEF5FEF6FEF12
:100CA0007FEFC1010E94542A7901A9016D2D8CA901
:100CB0009DA90E94AC276DEE72E0CE0108960E94BD
:100CC000B514BE01685F7F4FCE010E960E94771467
:100CD0006BEE73E0CE010E960E94852D6D2D0E9465
:100CE000572D6FEB73E00E94852D8C014AE0B20115
:100CF000C7010E946E31F20101900020E9F731979F
:100D0000AF0144195509B201C8010E947D2C81111F
:100D100003C0C8010E94AA2C6BEE72E0C8010E94B9
:100D2000852DBC018091B9069091BA060E94572783
:100D3000CE010E960E949C2DCE01089609CD8337D8
:100D4000E1F405E410E020E030E040E050E060E055
:100D500070E0C1010E94542A122F822F0E94C227E4
:100D60006DEE72E0C2010E94B514B201CE01089688
:100D70000E94771469E074E0B8C3843709F088C032
:100D800005E410E020E030E040E050E060E070E09A
:100D9000C1010E94542A922E0FEF1FEF2FEF3FEF59
:100DA0004FEF5FEF6FEF7FEFC1010E94542A722E69
:100DB000832E28A339A34AA35BA32FEF3FEF4FEF66
:100DC0005FEF6FEF7FEFC1010E94542A59018A0142
:100DD0008091B4060E94BC169092B406B501C80179
:100DE0000E9497312FE632E143E85AE30E94F8313E
:100DF0006B017C0120E030E0A9010E94B13420E0C9
:100E000030E040E05FE387FD05C0C701B6010E9406
:100E1000C63204C0C701B6010E94C5320E94DF334A
:100E200028A139A14AA15BA1232B242B252B61F0FA
:100E3000611571058105910539F09B01AC01672DA4
:100E4000782D892D0E945F176DEE72E0C2010E941D
:100E5000B514B201CE0108960E94771468E174E0DF
:100E6000CE0108960E94852D692D0E94572D67E2BC
:100E700074E00E94852D48A159A16AA17BA10E941E
:100E8000BC2C6FEB73E00E94852DA501B801A6CEA6
:100E9000823409F0D6C005E410E020E030E040E004
:100EA00050E060E070E0C1010E94542AF22E0FEF82
:100EB0001FEF2FEF3FEF4FEF5FEF6FEF7FEFC101BE
:100EC0000E94542A722E832E942EA52E2FEF3FEFD0
:100ED0004FEF5FEF6FEF7FEFC1010E94542AB22EF8
:100EE000C32ED42EE52E10E020E030E040E050E0AC
:100EF00060E070E0C1010E94542A622E8F2D0E9492
:100F00004F288FE390E00E94B9368C018BE492E089
:100F1000D80111969C938E9381E012968C93129730
:100F20001396FC9280E1F8013496DF01282F1D9280
:100F30002A95E9F77096DF011D928A95E9F782E01C
:100F4000F80185A376A287A290A6A1A612A613A651
:100F500014A615A6B6A6C7A6D0AAE1AA12AA13AAD5
:100F600014AA15AA16AA17AA10AE11AE12AE13AE85
:100F700014AE15AE862D611001C081E0D801DE9659
:100F80008C9362E08F2D0E948C2B8F2D0E94362B2C
:100F9000F80184A31A8309830F2D10E0A201B80180
:100FA00083E696E00E944D2EF2E0FF1659F023E012
:100FB000F21651F08EEE8F0D843048F487E18F19D0
:100FC00088A307C018A205C031E038A302C04FEFC4
:100FD00048A3B80184E39EE20E94412F41E050E023
:100FE000BC0188A10E9448166DEE72E0C2010E9409
:100FF000B514B201CE0108960E94771463E374E041
:10100000CE0108960E94852D6F2D0E94572D64E415
:1010100074E00E94852D472D582D692D7A2D0E9450
:10102000BC2C64E574E00E94852D4B2D5C2D6D2D4C
:101030007E2D0E94BC2C64E674E00E94852D662DF6
:1010400059C2833409F0AAC005E410E020E030E082
:1010500040E050E060E070E0C1010E94542A722E2E
:1010600020E030E040E050E060E070E0C1010E942C
:10107000542A622E0FEF20E030E040E050E060E0C4
:1010800070E0C1010E94542A2CA720E030E040E02B
:1010900050E060E070E0C1010E94542A2DA71FEFCC
:1010A0002FEF3FEF4FEF5FEF6FEF7FEFC1010E9438
:1010B000542A28A33CA34DA35EA32FEF3FEF4FEF8D
:1010C0005FEF6FEF7FEFC1010E94542A2FA3132F10
:1010D00048A759A7872D0E944F28862D0E944F2888
:1010E0008EE090E00E94B9369BA78AA78FA0912E30
:1010F000A8A4B9A4C8A0DCA0EDA0FEA00DA52CA5B5
:10110000462D672D0E9491248AA59BA59A838983E9
:10111000672D70E0A20183E696E00E944D2E6DEEF1
:1011200072E0C2010E94B514B201CE0108960E947D
:1011300077146DE674E0CE0108960E94852D672D28
:101140000E94572D61E874E00E94852D662D0E9453
:10115000572D63E874E00E94852D65E874E00E94D5
:10116000852D6CA50E94572D6FE874E00E94852D97
:101170006DA50E94572D64E474E00E94852D48A15E
:101180005CA16DA17EA10E94BC2C64E574E00E946C
:10119000852D4FA1512F68A579A520CD8C3409F05C
:1011A000BAC005E410E020E030E040E050E060E04C
:1011B00070E0C1010E94542AF22E0FEF1FEF2FEFB3
:1011C0003FEF4FEF5FEF6FEF7FEFC1010E94542AB7
:1011D00049015A012FEF3FEF4FEF5FEF6FEF7FEFC6
:1011E000C1010E94542A722EC32ED42EE52E8F2DBB
:1011F0000E944F288EE190E00E94B9368C018BE36B
:1012000092E0D80111969C938E931296FC921297BD
:1012100014961C92149715961C92159716968C92FC
:10122000169717969C9217971896AC92189719963E
:10123000BC9219971A961C921A971B961C921B9790
:101240001C961C921C971D961C921D971E967C92B4
:101250001E971F96CC921F975096DC9250975196EE
:10126000EC92519752961C92529753961C92539718
:1012700054961C92549755961C92559756961C92CC
:10128000569757961C92579758961C92589759966E
:101290001C9259975A961C925A975B961C925B9790
:1012A0005C961C925C975D961C9260E08F2D0E946C
:1012B0008C2B8F2D0E94C82BF80183831A830983FE
:1012C0006F2D70E0A20183E696E00E944D2E6DEE38
:1012D00072E0C2010E94B514B201CE0108960E94CC
:1012E000771465E974E0CE0108960E94852D6F2D74
:1012F0000E94572D64E474E00E94852DA401B5017D
:101300000E94BC2C64E574E00E94852D472D5C2D65
:101310006D2D7E2D63CC823509F0CAC005E410E046
:1013200020E030E040E050E060E070E0C1010E9469
:10133000542AF22E20E030E040E050E060E070E01F
:10134000C1010E94542AE22E0FEF20E030E040E07D
:1013500050E060E070E0C1010E94542AB22E8F2D4F
:101360000E944F288E2D0E944F2886E190E00E9417
:10137000B9368C01EBE2F2E0DC011196FC93EE93BE
:101380001396FC9213971496EC92149715961C9250
:10139000159716961C92169717961C9217971896E3
:1013A0001C92189719961C9219971A961C921A97C4
:1013B0001B961C921B971C961C921C971D961C92A8
:1013C0001D971E961C921E971F961C921F97509653
:1013D0001C92509751961C92519752961C9252977C
:1013E00053961C92539754961C928B2DB11001C0AA
:1013F00081E0D80155968C9362E08F2D0E948C2B52
:1014000062E08E2D0E948C2B8F2D0E94362B21E0C6
:10141000892B09F420E0F80122831A830983CF2C59
:10142000D12CA201B60183E696E00E944D2EF2E097
:10143000FF1651F023E0F21649F08EEE8F0D843046
:1014400038F417E11F1905C010E003C011E001C016
:101450001FEFB60187EF9DE20E94412F43E050E06D
:10146000BC01812F0E9448166DEE72E0C2010E94FD
:10147000B514B201CE0108960E94771465EA74E0B3
:10148000CE0108960E94852D6F2D0E94572D61E890
:1014900074E00E94852D6E2D0E94572D63E874E044
:1014A0000E94852D64E674E00E94852D6B2D22C07C
:1014B000833519F505E410E020E030E040E050E02D
:1014C00060E070E0C1010E94542A122F822F0E9416
:1014D0004F286DEE72E0C2010E94B514B201CE0138
:1014E00008960E9477146AEB74E0CE0108960E9479
:1014F000852D612F0E94572D73CB843511F00C94EC
:101500008D0105E410E020E030E040E050E060E0D4
:1015100070E0C1010E94542AF22E0FEF20E030E06B
:1015200040E050E060E070E0C1010E94542AE22EE9
:101530001FEF2FEF3FEF4FEF5FEF6FEF7FEFC10137
:101540000E94542A49015A012FEF3FEF4FEF5FEFFE
:101550006FEF7FEFC1010E94542A39016A018F2D7C
:101560000E944F2883E290E00E94B9368C01EBE1A3
:10157000F2E0DC011196FC93EE931296FC92129726
:101580001396EC92139714961D921D921D921C9225
:1015900017971B968C921B971C969C921C971D96D6
:1015A000AC921D971E96BC921E971F961C921F9779
:1015B00050961C92509751961C92519752961C929D
:1015C000529753966C92539754967C925497559693
:1015D000CC9255975696DC92569757961C925797F1
:1015E00058961C92589759961C9259975A961C9245
:1015F0005A975B961C925B975C961C925C975D96E3
:101600001C925D975E961C925E975F961C925F9708
:1016100090961C92909791961C92919792961C92FC
:1016200060E08F2D0E948C2B8F2D0E94C82B4E2D99
:1016300050E021E0841795070CF020E0F8012087A6
:10164000218722871A8309836F2D70E0A20183E628
:1016500096E00E944D2E6DEE72E0C2010E94B5141C
:10166000B201CE0108960E94771469EC74E0CE01B5
:1016700008960E94852D6F2D0E94572D6DED74E008
:101680000E94852D6E2D0E94572D64E474E00E9407
:10169000852DA401B5010E94BC2C64E574E00E9474
:1016A000852DA301B6019ACA8F3F910509F035C671
:1016B000C1010E945725182F8E3F98F48F3718F0DC
:1016C0001F5701E001C000E0812F0E94C22761E0A6
:1016D000812F0E948C2B602F812F0E945E2B0C94F7
:1016E0008D01C1011E3F59F40E945725182FC101D9
:1016F0000E945725E12FF0E080830C948D010E9419
:101700005725ACA9BDA914961C92149713961C9248
:10171000811117C067E0C1010E94B028122F61E05B
:10172000C1010E94B028A0E00E94993629F0812FC3
:101730000E944F280C948D01812F0E94C2270C9487
:101740008D01813009F0CCC067E0C1010E94B02852
:10175000F22E61E0C1010E94B028EE24E394A0E0E3
:101760000E94993609F4E12C68E1C1010E94B02879
:1017700028A33CA34DA35EA36FA378A789A79AA72C
:1017800068E1C1010E94B0282CA73DA74EA75FA722
:1017900068AB79AB8AAB9BAB68E1C1010E94B02812
:1017A00039014A015B016C018F2D0E94C22788E23A
:1017B00090E00E94B9368C0181E892E0F8019183B3
:1017C0008083F28281E083838483E1E09301A4013A
:1017D000B501C601A0E00E94993609F4E0E0D80105
:1017E0001596EC9315971696EC9216971796EC9221
:1017F000179718961C92189719961C9219971A9673
:101800001C921A971B961C921B971C961C921C9755
:101810001D961C921D971E961C921E971F961C9239
:101820001F97E8A15096EC935097FCA15196FC931A
:1018300051972DA152962C9352973EA153963C93CB
:1018400053974FA154964C93549758A555965C9333
:10185000559789A556968C9356979AA557969C931B
:101860005797ECA55896EC935897FDA55996FC937D
:1018700059972EA55A962C935A973FA55B963C9361
:101880005B9748A95C964C935C9759A95D965C93CD
:101890005D978AA95E968C935E979BA95F969C93B1
:1018A0005F9790966C92909791967C929197929672
:1018B0008C92929793969C9293979496AC929497CD
:1018C0009596BC9295979696CC9296979796DC9221
:1018D00061E08F2D0E948C2B1A8309836F2D3AC2F1
:1018E000823009F03CC268E0C1010E94B028722E2B
:1018F00068E1C1010E94B02828A33CA34DA35EA3C8
:10190000662E7FA388A799A768E1C1010E94B0282D
:101910002AA73CA74DA75EA76FA778AB89AB9AAB68
:1019200068E1C1010E94B0282BAB3EAB4FAB58AF72
:1019300069AF7AAF8BAF9CAF68E1C1010E94B0285C
:101940002DAF3EAF4FAF21965FAF219722966FAF7D
:10195000229723967FAF239724968FAF24972596BF
:101960009FAF259768E1C1010E94B02859016A0123
:101970007B018C01872D0E94C22787E490E00E94A2
:10198000B9364C018BE592E0D40111969C938E936D
:1019900012967C92129781E014968C931497159668
:1019A0008C93159716968C931697E8A15F96EC93F7
:1019B0005F97FCA19096FC9390972DA191962C9304
:1019C00091973EA192963C93929793966C9293979F
:1019D0004FA194964C93949758A595965C939597A0
:1019E00089A596968C9396979AA597969C93979788
:1019F000ECA59896EC939897FDA59996FC939997EA
:101A00002EA59A962C939A973FA59B963C939B97CD
:101A100048A99C964C939C9759A99D965C939D9739
:101A20008AA99E968C939E979BA99F969C939F971D
:101A3000EEA9D096EC93D097FFA9D196FC93D197BD
:101A400028ADD2962C93D29739ADD3963C93D397A9
:101A50004AADD4964C93D4975BADD5965C93D5970D
:101A60008CADD6968C93D6979DADD7969C93D797F1
:101A7000EEADD896EC93D897FFADD996FC93D99755
:101A800021962FAD2197DA962C93DA9722963FADC7
:101A90002297DB963C93DB9723964FAD2397DC96FA
:101AA0004C93DC9724965FAD2497DD965C93DD978D
:101AB00025968FAD2597DE968C9361E0872D0E9449
:101AC0008C2B872D0E94362B21E0892B09F420E0F6
:101AD000D40113962C932696AFAE26972796BFAEC9
:101AE00027972896CFAE28972996DFAE29972A9672
:101AF000EFAE2A972B96FFAE2B972C960FAF2C9715
:101B00002D961FAF2D979501A601B701C801A0E042
:101B10000E949936C9F4B1E02696BFAF2697279662
:101B20001FAE279728961FAE289729961FAE299794
:101B30002A961FAE2A972B961FAE2B972C961FAE78
:101B40002C972D961FAE2D9728A13CA14DA15EA1EB
:101B5000662D7FA188A599A5AAA4BCA4CDA4DEA4C6
:101B6000EFA4F8A809A91AA90E949036B0F495012B
:101B7000A601B701C801A8A0BCA0CDA0DEA0E62C9C
:101B8000FFA008A519A50E9487360E941034F40111
:101B9000678B708F818F928F1CC028A13CA14DA1B3
:101BA0005EA1662D7FA188A599A5AAA4BCA4CDA4F9
:101BB000DEA4EFA4F8A809A91AA90E9487360E94FA
:101BC0001034DC01CB01B058F401878B908FA18FCA
:101BD000B28F26962FAD269727963FAD279728964A
:101BE0004FAD289729965FAD29972A966FAD2A9712
:101BF0002B967FAD2B972C968FAD2C972D969FAD66
:101C00002D970E94103468A379A38AA39BA39B01FC
:101C1000AC01D40157966D917D918D919C915A970D
:101C20000E943D33F401678B708F818F928F2BA9B7
:101C30003EA94FA958AD69AD7AAD8BAD9CADADACA9
:101C4000BEACCFAC2196DFAC21972296EFAC2297A9
:101C50002396FFAC239724960FAD249725961FADAE
:101C600025970E949036C0F49501A601B701C801DE
:101C7000ABA8BEA8CFA8D8ACE9ACFAAC0BAD1CADF4
:101C80000E9487360E941034D4015B966D937D9339
:101C90008D939C935E9726C02BA93EA94FA958AD62
:101CA00069AD7AAD8BAD9CADADACBEACCFAC219681
:101CB000DFAC21972296EFAC22972396FFAC2397B7
:101CC00024960FAD249725961FAD25970E94873641
:101CD0000E941034DC01CB01B058F401838F948F43
:101CE000A58FB68F28A139A14AA15BA1D4015B962B
:101CF0006D917D918D919C915E970E943D33F40191
:101D0000638F748F858F968FFF9626962FAD2697BB
:101D1000D401DF962C9327963FAD279731832896E1
:101D20004FAD2897428329965FAD299753832A9612
:101D30008FAD2A9784832B969FAD2B9795832C96F6
:101D4000AFAD2C97A6832D96BFAD2D97B7839A8202
:101D50008982672D70E0A2018DE696E0DAC28330B9
:101D6000B9F460E1C1010E94B02889018CA99DA944
:101D70000E946D27B8010831110510F468E170E088
:101D800080E090E00E9497310E9494260C948D018F
:101D9000843089F464E0C1010E94B028122F6CE005
:101DA000C1010E94B028A901612F8CA99DA90E94A0
:101DB000AC270C948D01853009F051C068E0C10159
:101DC0000E94B028122F60E1C1010E94B028722E3B
:101DD000032FC22ED32E7A0168E1C1010E94B028E0
:101DE00049015A018091B406C7D71093B406B401D3
:101DF000C5010E9497312FE632E143E85AE30E9481
:101E0000F8314B015C0120E030E0A9010E94B134BF
:101E100020E030E040E05FE387FD05C0C501B4018C
:101E20000E94C63204C0C501B4010E94C5320E949E
:101E3000DF33CD28CE28CF2811F40C948D01611505
:101E400071058105910511F40C948D019B01AC0184
:101E5000672D702F812F0E945F170C948D018F3F8B
:101E600009F091C068E0C1010E94B028122F68E11A
:101E7000C1010E94B02849015A016B0188A39CA3AB
:101E800068E1C1010E94B0282DA33EA37A016FA38F
:101E900078A789A79AA768E0C1010E94B028022FFD
:101EA000812F0E944F288FE390E00E94B9363C01B9
:101EB0008BE492E0F3019183808381E0828313833A
:101EC00080E13496DF01282F1D922A95E9F770965C
:101ED000DF011D928A95E9F782E0F30185A386A2CE
:101EE00097A2A0A6B1A6C2A6D3A628A124A73CA1CA
:101EF00035A74DA146A75EA157A7E0AAF1AA8FA1D9
:101F000082AB98A593ABA9A5A4ABBAA5B5AB16AA0D
:101F100017AA10AE11AE12AE13AE14AE15AE06AFC8
:101F2000802F011101C081E0F30186AF62E0812FB3
:101F30000E948C2B812F0E94362BD30194968C9378
:101F40007A826982E12EF12CA201B70183E696E044
:101F50000E944D2E123051F0133051F08EEE810F51
:101F6000843040F487E1811B182F05C010E003C0C6
:101F700011E001C01FEFB70184E39EE20E94412FF0
:101F800041E050E02DC18E3FF1F568E0C1010E94B3
:101F9000B028122F68E0C1010E94B02828A368E091
:101FA000C1010E94B0282CA368E0C1010E94B028A2
:101FB000022F68E1C1010E94B02879014DA35EA300
:101FC00068E1C1010E94B02859016A01812F0E9475
:101FD0004F2888A10E944F288EE090E00E94B936D9
:101FE0003C014501AC2CBD2C67019DA18EA1E92EC1
:101FF000F82E2CA148A1612FC3010E9491247A825E
:102000006982612F82C18D3F09F054C068E0C1012F
:102010000E94B028F22E68E1C1010E94B02828A3D6
:102020003CA34DA35EA33B014C0168E1C1010E94AA
:10203000B0282FA338A749A7A52EB62EC72ED82E75
:10204000E92E8F2D0E944F288EE190E00E94B93634
:102050008C018BE392E0F80191838083F2821482F9
:10206000158228A126833CA137834DA140875EA11C
:10207000518762867386848695868FA1868798A508
:102080009787A9A5A08BA18AB28AC38AD48AE58A38
:10209000168A178A108E118E128E138E148E158E3C
:1020A00060E08F2D0E948C2B8F2D0E94C82BF80191
:1020B000838328C18C3F09F098C068E0C1010E9469
:1020C000B028F22E68E0C1010E94B028D22E68E04C
:1020D000C1010E94B028E22E8F2D0E944F288D2D25
:1020E0000E944F2886E190E00E94B9368C01EBE215
:1020F000F2E0DC011196FC93EE931396FC92139799
:102100001496DC92149715961C92159716961C92AD
:10211000169717961C92179718961C92189719964F
:102120001C9219971A961C921A971B961C921B9731
:102130001C961C921C971D961C921D971E961C9215
:102140001E971F961C921F9750961C92509751965F
:102150001C92519752961C92529753961C925397E9
:1021600054961C9254975596EC922E2DE11001C076
:1021700021E0D80155962C9362E08F2D0E948C2B84
:1021800062E08D2D0E948C2B8F2D0E94362B21E03A
:10219000892B09F420E0F80122831A830983CF2CCC
:1021A000D12CA201B60183E696E00E944D2EF2E00A
:1021B000FF1651F023E0F21649F08EEE8F0D8430B9
:1021C00038F417E11F1905C010E003C011E001C089
:1021D0001FEFB60187EF9DE20E94412F43E050E0E0
:1021E000BC01812F55D50C948D018B3F11F00C94BF
:1021F0008D0168E0C1010E94B028F22E68E0C101A3
:102200000E94B028E22E68E1C1010E94B028390185
:102210004A0168E1C1010E94B02859016A018F2D6D
:102220000E944F2883E290E00E94B9368C01EBE1D6
:10223000F2E0DC011196FC93EE931296FC92129759
:102240001396EC92139714961D921D921D921C9258
:1022500017971B966C921B971C967C921C971D9649
:102260008C921D971E969C921E971F961C921F97EC
:1022700050961C92509751961C92519752961C92D0
:1022800052975396AC9253975496BC925497559646
:10229000CC9255975696DC92569757961C92579724
:1022A00058961C92589759961C9259975A961C9278
:1022B0005A975B961C925B975C961C925C975D9616
:1022C0001C925D975E961C925E975F961C925F973C
:1022D00090961C92909791961C92919792961C9230
:1022E00060E08F2D0E948C2B8F2D0E94C82B4E2DCD
:1022F00050E021E0841795070CF020E0F8012087DA
:10230000218722871A8309836F2D70E0A20183E65B
:1023100096E00E944D2E0C948D01019711F00C94C3
:102320008D01C1010E9457258436B1F0823711F02A
:102330000C948D018CA99DA90E94FC272FEF30E001
:102340003093B6062093B50645EB5DE25093B80690
:102350004093B7060C948D018CA99DA90E94FC277F
:1023600082E090E09093B6068093B506A8EDBEE2B9
:10237000B093B806A093B7060C948D011092720624
:1023800010927106BE016F5F7F4F8DE696E00E944E
:10239000BB2E8823D1F089819A810091C8061091C3
:1023A000C9062091CA063091CB064091CC065091C7
:1023B000CD066091CE067091CF06DC01ED91FC91C7
:1023C0000480F581E02D1995DDCF109268061092FA
:1023D000670687E1E82EF12CBE016F5F7F4F83E631
:1023E00096E00E94BB2E8823E9F189819A81DC0165
:1023F000ED91FC910284F385E02D1995029761F32C
:1024000089819A81DC01ED91FC910284F385E02DB4
:102410001995039709F389819A81DC01ED91FC916B
:102420000284F385E02D19954297BCF189819A8148
:10243000DC01ED91FC910284F385E02D199546971E
:1024400064F589819A81DC01ED91FC910284F38528
:10245000E02D1995F701E81BF90BCF01019609F062
:10246000BBCF1BC01092680610926706BE016F5F5B
:102470007F4F83E696E00E94BB2E882341F189813D
:102480009A816091B7067091B806DC01ED91FC91DC
:102490000190F081E02D1995E9CF89819A81009111
:1024A000C8061091C9062091CA063091CB0640910A
:1024B000CC065091CD066091CE067091CF06DC011E
:1024C000ED91FC910480F581E02D199585CFC45BD9
:1024D000DF4F0FB6F894DEBF0FBECDBFDF91CF91B7
:1024E0001F910F91FF90EF90DF90CF90BF90AF9032
:1024F0009F908F907F906F905F904F903F902F9024
:1025000008950895CF92DF92EF92FF920F931F9359
:10251000CF93DF936C017A018B01C0E0D0E0CE1540
:10252000DF0581F0D8016D918D01D601ED91FC910F
:102530000190F081E02DC6011995892B11F02196AB
:10254000EECF7E01C701DF91CF911F910F91FF90D8
:10255000EF90DF90CF900895FC01538D448D252F8F
:1025600030E0842F90E0821B930B541710F0CF962D
:10257000089501970895FC01918D828D981761F05F
:10258000828DDF01A80FB11D5D968C91928D9F5FAA
:102590009F73928F90E008958FEF9FEF0895FC0155
:1025A000918D828D981731F0828DE80FF11D858D08
:1025B00090E008958FEF9FEF0895FC01918D228D9B
:1025C000892F90E0805C9F4F821B91098F73992720
:1025D000089585EC95E0F1DF21E0892B09F420E0F6
:1025E000822F0895FC01848DDF01A80FB11DA35A2D
:1025F000BF4F2C91848D90E001968F739927848F23
:10260000A689B7892C93A089B1898C918370806445
:102610008C93938D848D981306C00288F389E02DE6
:1026200080818F7D80830895EF92FF920F931F9397
:10263000CF93DF93EC0181E0888F9B8D8C8D981375
:1026400005C0E889F989808185FD25C0F62E0B8DAE
:1026500010E00F5F1F4F0F731127E02E8C8DE812D3
:102660000BC00FB607FCFACFE889F989808185FF96
:10267000F5CFCE01B7DFF2CF8B8DFE01E80FF11D54
:10268000E35AFF4FF0829FB7F8940B8FEA89FB89DA
:10269000808180620AC09FB7F894EE89FF896083C9
:1026A000E889F98980818370806480839FBF81E09D
:1026B00090E0DF91CF911F910F91FF90EF900895DF
:1026C000CF93DF93EC01888D8823C1F0EA89FB89E1
:1026D000808185FD05C0A889B9898C9186FD0EC0D1
:1026E0000FB607FCF5CF808185FFF2CFA889B989A5
:1026F0008C9185FFEDCFCE0175DFE8CFDF91CF91D3
:10270000089580E090E0892B19F063DF811125C0E6
:1027100080E090E0892B41F080E090E0892B21F06F
:102720000E94000081111CC080E090E0892B41F0E4
:1027300080E090E0892B21F00E940000811113C0FD
:1027400080E090E0892BA1F080E090E0892B81F07F
:102750000E94000081110AC008950E940000D8CF95
:102760000E940000E1CF0E940000EACF0C9400001C
:10277000089585ED8093BC008091BC0084FDFCCF62
:102780001092A105089540911205262F30E0240FE4
:10279000311D21323105DCF42091A1052430C9F42A
:1027A000FC0180E090E0861758F4309112052191E9
:1027B000DC01AE50BB4FA30FB11D2C930196F3CF9C
:1027C00080911205680F6093120580E0089581E002
:1027D000089582E00895089508950895E0915A05B6
:1027E00080915905E81730F4F0E0E55AFA4F8081FE
:1027F00090E008958FEF9FEF089590915A05809192
:102800005905981750F4E92FF0E0E55AFA4F208166
:1028100030E09F5F90935A0502C02FEF3FEFC90150
:1028200008958091590590E020915A05821B9109E5
:102830000895CF92DF92EF92FF920F931F93CF9361
:10284000DF937C01CB018A012091A205222389F02C
:10285000EB016B01C40ED51ECC15DD0561F069914D
:10286000D701ED91FC910190F081E02DC701199500
:10287000F3CF642F88DFC801DF91CF911F910F91B3
:10288000FF90EF90DF90CF900895CF93DF931F924A
:10289000CDB7DEB769832091A2052223D1F0209124
:1028A000C405203240F021E030E0FC013383228374
:1028B00080E090E014C08091A305E82FF0E0EC5593
:1028C000FA4F998190838F5F8093A3058093C4050D
:1028D00004C061E0CE01019656DF81E090E00F90E8
:1028E000DF91CF910895089580E090E00895EF92F0
:1028F000FF920F931F93CF93DF93FC0111821082FD
:1029000013821282158214828617970739F1DB0130
:102910000D911C9111970115110501F1EC0114960F
:10292000ED90FC901597B7010E94562C811109C0BB
:10293000CE01DF91CF911F910F91FF90EF900C94FA
:10294000AA2CFD82EC82B80188819981DF91CF9118
:102950001F910F91FF90EF900C94C738DF91CF91AA
:102960001F910F91FF90EF900895EF92FF920F93B8
:102970001F93CF93DF93EC01198218821B821A8276
:102980001D821C826115710521F18B01FB010190F3
:102990000020E9F731977F01E61AF70AB7010E9494
:1029A000562C811109C0CE01DF91CF911F910F915B
:1029B000FF90EF900C94AA2CFD82EC82B8018881E4
:1029C0009981DF91CF911F910F91FF90EF900C941F
:1029D000C738DF91CF911F910F91FF90EF9008952D
:1029E0001F920F920FB60F9211240BB60F922F93D6
:1029F0003F934F935F936F937F938F939F93AF9387
:102A0000BF93EF93FF93E0910F02F091100219959D
:102A1000FF91EF91BF91AF919F918F917F916F91B6
:102A20005F914F913F912F910F900BBE0F900FBE72
:102A30000F901F9018951F920F920FB60F921124AE
:102A40000BB60F922F933F934F935F936F937F93A8
:102A50008F939F93AF93BF93EF93FF93E0910D02FA
:102A6000F0910E021995FF91EF91BF91AF919F9157
:102A70008F917F916F915F914F913F912F910F9027
:102A80000BBE0F900FBE0F901F9018951F920F92C4
:102A90000FB60F9211240BB60F922F933F934F93C3
:102AA0005F936F937F938F939F93AF93BF93EF93B6
:102AB000FF93E0910302F09104021995FF91EF91C9
:102AC000BF91AF919F918F917F916F915F914F9146
:102AD0003F912F910F900BBE0F900FBE0F901F9044
:102AE00018951F920F920FB60F9211240BB60F92EA
:102AF0002F933F934F935F936F937F938F939F9306
:102B0000AF93BF93EF93FF93E0910102F091020224
:102B10001995FF91EF91BF91AF919F918F917F9107
:102B20006F915F914F913F912F910F900BBE0F903E
:102B30000FBE0F901F9018951F920F920FB60F9215
:102B400011240BB60F922F933F934F935F936F9384
:102B50007F938F939F93AF93BF93EF93FF93E091F6
:102B60000B02F0910C021995FF91EF91BF91AF917B
:102B70009F918F917F916F915F914F913F912F9195
:102B80000F900BBE0F900FBE0F901F9018951F92C5
:102B90000F920FB60F9211240BB60F922F933F9303
:102BA0004F935F936F937F938F939F93AF93BF9355
:102BB000EF93FF93E0910902F0910A021995FF91BA
:102BC000EF91BF91AF919F918F917F916F915F91A5
:102BD0004F913F912F910F900BBE0F900FBE0F9012
:102BE0001F9018951F920F920FB60F9211240BB6DB
:102BF0000F922F933F934F935F936F937F938F9396
:102C00009F93AF93BF93EF93FF93E0910702F091EF
:102C100008021995FF91EF91BF91AF919F918F910C
:102C20007F916F915F914F913F912F910F900BBECC
:102C30000F900FBE0F901F9018951F920F920FB616
:102C40000F9211240BB60F922F933F934F935F93E4
:102C50006F937F938F939F93AF93BF93EF93FF9364
:102C6000E0910502F09106021995FF91EF91BF9155
:102C7000AF919F918F917F916F915F914F913F9114
:102C80002F910F900BBE0F900FBE0F901F901895B5
:102C9000883008F070C0A82FB0E0AA0FBB1FAF5F4C
:102CA000BD4F11967C936E9390E0FC013197E73015
:102CB000F105A0F58827EE58FF4F8F4F0C94123581
:102CC000809169008C7F482B40936900E89A0895B1
:102CD00080916900837F440F551F440F551F482B77
:102CE00040936900E99A0895809169008F7C74E0AF
:102CF000440F551F7A95E1F7482B40936900EA9AF3
:102D00000895809169008F7366E0440F551F6A959E
:102D1000E1F7482B40936900EB9A089580916A008F
:102D20008C7F482B40936A00EC9A089580916A004A
:102D3000837F440F551F440F551F482B40936A0053
:102D4000ED9A089580916A008F7C24E0440F551F0E
:102D50002A95E1F7482B40936A00EE9A08958091F6
:102D60006A008F7396E0440F551F9A95E1F7482B40
:102D700040936A00EF9A08959091000289133DC034
:102D8000E6E1F1E0E4919FEF90930002E230C9F0B8
:102D900050F4EE2399F0E13081F590916F009D7F22
:102DA00090936F002AC0E43019F1E0F0E53029F586
:102DB000909173009D7F909373001FC010926E00DE
:102DC0001CC0909170009D7F9093700091E0909353
:102DD000B0009091B100987F94609093B1001092F0
:102DE000B3000BC0909171009D7F9093710005C05E
:102DF000909172009D7F9093720060E00C945E2B26
:102E00001F920F920FB60F9211240BB60F922F93B1
:102E10003F934F935F936F937F938F939F93AF9362
:102E2000BF93EF93FF938091510590915205A0912C
:102E30005305B0915405892B8A2B8B2B51F190911E
:102E40005005E0914E05F0914F05808189278083E0
:102E50008091510590915205A0915305B091540570
:102E6000181619061A061B06BCF48091510590919C
:102E70005205A0915305B09154050197A109B109DC
:102E80008093510590935205A0935305B093540538
:102E900003C08091000270DFFF91EF91BF91AF916D
:102EA0009F918F917F916F915F914F913F912F9162
:102EB0000F900BBE0F900FBE0F901F9018954F9262
:102EC0005F926F927F928F929F92AF92BF92CF92BA
:102ED000DF92EF92FF920F931F93CF93DF9300D077
:102EE0001F921F92CDB7DEB78B0129013A01909155
:102EF0000002891721F09F3F09F032C305C0E6E1C7
:102F0000F1E024912D83EFC080930002E6E1F1E02F
:102F100094919D839F3F09F423C3923009F473C0B9
:102F200048F5992309F452C0913009F0DCC01092A1
:102F300080001092810090918100986090938100B0
:102F400090918100916090938100282F30E0F901E9
:102F5000EB59FE4FE491F0E0EE0FFF1FEF5CFE4FE8
:102F600045915491F901E555FE4FE491E093380500
:102F700091E093C02D81243009F491C008F46BC016
:102F8000253009F0B0C010922001109221019091DB
:102F9000210198609093210190912101916090937B
:102FA0002101282F30E0F901EB59FE4FE491F0E0C8
:102FB000EE0FFF1FEF5CFE4F45915491F901E5556F
:102FC000FE4FE491E093350595E067C014BC15BC55
:102FD00094B5926094BD95B5916095BD282F30E071
:102FE000F901EB59FE4FE491F0E0EE0FFF1FEF5CAB
:102FF000FE4F45915491F901E555FE4FE491E09360
:1030000039051D82A9C21092B0001092B1009091B2
:10301000B00092609093B0009091B1009160909355
:10302000B100282F30E0F901EB59FE4FE491F0E0B8
:10303000EE0FFF1FEF5CFE4F4591549150934F05EB
:1030400040934E05F901E555FE4FE491E09350059C
:1030500022E02D8381C210929000109291009091F5
:10306000910098609093910090919100916090935D
:103070009100282F30E0F901EB59FE4FE491F0E088
:10308000EE0FFF1FEF5CFE4F45915491F901E5559E
:10309000FE4FE491E093370593E09D83ADC010921D
:1030A000A0001092A1009091A10098609093A100BF
:1030B0009091A10091609093A100282F30E0F90138
:1030C000EB59FE4FE491F0E0EE0FFF1FEF5CFE4F77
:1030D00045915491F901E555FE4FE491E093360591
:1030E00024E02D8389C02D8127FD3AC261E00E9432
:1030F0008C2B8D818D7F09F082C04801A12CB12CD1
:1031000060E072E18AE790E0A50194010E94F63444
:1031100029833A834B835C8369017A0181E0C81A71
:10312000D108E108F1089FEFC916D104E104F104C8
:1031300009F008F44EC060E472E48FE090E0A5016D
:1031400094010E94F63469017A0181E0C81AD1081D
:10315000E108F1089D81923009F52FEFC216D104E4
:10316000E104F10409F008F4BEC160E970ED83E008
:1031700090E0A50194010E94F63469017A0181E092
:10318000C81AD108E108F1089FEFC916D104E1047B
:10319000F10411F008F035C183E027C02FEFC2160B
:1031A000D104E104F104B9F0B0F068E478EE81E014
:1031B00090E0A50194010E94F63469017A0181E052
:1031C000C81AD108E108F1089D81992309F48FC13B
:1031D00057C181E001C082E09D81911106C095B583
:1031E000987F892B85BD7EC085E09091B100987F46
:1031F000892B8093B10076C061E00E948C2B48013E
:10320000A12CB12C60E072E18AE790E0A501940165
:103210000E94F63469017A0181E0C81AD108E108F8
:10322000F108C114D10491E0E906F10488F068E4E2
:1032300078EE81E090E0A50194010E94F6346901E6
:103240007A0181E0C81AD108E108F10883E001C0E1
:1032500081E09D81913081F490918100987F892B4C
:1032600080938100411451046104710409F03FC04E
:103270002FEF3FEFA9016DC02D81233079F490919C
:103280009100987F892B809391004114510461042F
:10329000710469F52FEF3FEFA9017DC09D81943046
:1032A00079F49091A100987F892B8093A10041141B
:1032B000510461047104D9F42FEF3FEFA9017DC0DF
:1032C0002D81253079F490912101987F892B80936D
:1032D0002101411451046104710449F42FEF3FEFBF
:1032E000A9017DC0411451046104710471F0D80139
:1032F000AA0FBB1FA30192010E94AC3228EE33E05B
:1033000040E050E00E94D43403C02FEF3FEFA9010A
:103310008D81823081F12CF4882361F08130C9F0F5
:103320001FC19D81943009F448C0ACF1953009F477
:1033300056C016C1C7BC20934A0530934B05409335
:103340004C0550934D0580916E00826080936E0015
:1033500007C1D0928900C09288002093460530931F
:103360004705409348055093490580916F0082605E
:1033700080936F00F5C0C092B30020935105309345
:10338000520540935305509354058091700082601C
:1033900080937000E5C0D0929900C092980020936D
:1033A0004205309343054093440550934505809171
:1033B0007100826080937100D3C0D092A900C09246
:1033C000A80020933E0530933F054093400550935D
:1033D000410580917200826080937200C1C0D092DA
:1033E0002901C092280120933A0530933B05409370
:1033F0003C0550933D05809173008260809373007B
:10340000AFC068E478EE81E090E0A50194010E94ED
:10341000F63469017A0181E0C81AD108E108F1089F
:103420009FEFC916D104E104F10441F138F164E2DF
:1034300074EF80E090E0A50194010E94F6346901E8
:103440007A0181E0C81AD108E108F1089FEFC91696
:10345000D104E104F10409F008F4C6CE62E17AE790
:1034600080E090E0A50194010E94F63469017A01A0
:1034700081E0C81AD108E108F10818C084E0B5CE8F
:103480002FEFC216D104E104F10479F170F162E189
:103490007AE780E090E0A50194010E94F63469018A
:1034A0007A0191E0C91AD108E108F1088FEFC81636
:1034B000D104E104F104A9F0A0F089819A81AB81E3
:1034C000BC812AE0B595A795979587952A95D1F760
:1034D0006C017D0121E0C21AD108E108F10887E002
:1034E00084CE86E082CE82E080CE84E075CE2FEF5F
:1034F000C216D104E104F10469F160F162E17AE7F6
:1035000080E090E0A50194010E94F63469017A01FF
:1035100081E0C81AD108E108F1089FEFC916D1046B
:10352000E104F104A9F0A0F089819A81AB81BC810A
:103530003AE0B595A795979587953A95D1F76C019F
:103540007D0121E0C21AD108E108F10885E047CEEB
:1035500084E045CE83E043CE61E00E948C2BCDCD4C
:103560000F900F900F900F900F90DF91CF911F91C0
:103570000F91FF90EF90DF90CF90BF90AF909F9012
:103580008F907F906F905F904F9008951F920F9251
:103590000FB60F9211240BB60F922F933F934F93B8
:1035A0005F936F937F938F939F93AF93BF93EF93AB
:1035B000FF9385EC95E016D8FF91EF91BF91AF9105
:1035C0009F918F917F916F915F914F913F912F913B
:1035D0000F900BBE0F900FBE0F901F9018951F926B
:1035E0000F920FB60F9211240BB60F922F938F9359
:1035F0009F93EF93FF93E091D505F091D6058081DD
:10360000E091DB05F091DC0582FD12C09081809194
:10361000DE058F5F8F732091DF05821751F0E091F7
:10362000DE05F0E0EB53FA4F958F8093DE0501C085
:103630008081FF91EF919F918F912F910F900BBE01
:103640000F900FBE0F901F9018951F920F920FB6FC
:103650000F9211240BB60F922F933F934F935F93CA
:103660006F937F938F939F93AF93BF93EF93FF934A
:103670008091B900887F803609F49CC068F5883253
:1036800009F45BC090F4803109F454C038F4882305
:1036900009F4F6C0883009F44DC0F6C0883109F449
:1036A0004CC0803209F45DC0EFC0803409F468C0BA
:1036B00048F4803309F455C0883309F0E5C080939D
:1036C0009F05D8C0803509F44FC0883509F45DC026
:1036D000883409F0D9C0D6C0883909F4C7C0A8F425
:1036E000883709F467C038F4883609F463C0803736
:1036F00009F460C0C9C0883809F4B8C0803909F439
:103700005FC0803809F0C0C05BC0803B09F486C050
:1037100038F4803A09F466C0883A09F47FC0B4C02E
:10372000803C09F4A7C0883C09F4A4C0883B09F494
:103730008AC0AAC080917C0510C090919E0580919E
:103740009D05981770F5E0919E0581E08E0F80939E
:103750009E05F0E0E358FA4F80818093BB0085EC32
:1037600086C080939F058EC0E0919E0581E08E0FFC
:1037700080939E058091BB00F0E0E358FA4F808370
:1037800090919E0580919D056EC0E0919E0581E01F
:103790008E0F80939E058091BB00F0E0E358FA4FB6
:1037A00080838091A00581116DC081E080937B05AD
:1037B00084EA61C083E08093A10510923405CFCFE5
:1037C00080913405803208F051C0E091340581E0E9
:1037D0008E0F809334058091BB00F0E0EC5EFA4FD1
:1037E0008083BDCF85EC8093BC001092A1058091B1
:1037F0003405803230F4E0913405F0E0EC5EFA4FAD
:1038000010826091340570E0E0915505F091560505
:1038100084E195E019951092340536C084E08093D8
:10382000A1051092130510921205E0915705F09131
:103830005805199580911205811105C081E080938A
:1038400012051092F204E091130581E08E0F80932F
:103850001305F0E0EE50FB4F80818093BB00909108
:10386000130580911205981708F479CF85E88093A5
:10387000BC000AC085EC8093BC001092A10504C076
:1038800010929F050E94B913FF91EF91BF91AF91E4
:103890009F918F917F916F915F914F913F912F9168
:1038A0000F900BBE0F900FBE0F901F901895FC014C
:1038B0008281082E000C990B0895FC011482089552
:1038C000FC018281082E000C990B0895FC011582E1
:1038D00016820895FC018281082E000C990B089530
:1038E000FC018281082E000C990B0895DF92EF9263
:1038F000FF920F931F93CF93DF93EC017B01DD24A5
:10390000D3948C819D81AE81BF81181619061A0649
:103910001B06DCF40197A109B1098C839D83AE835A
:10392000BF8349854D254987411104C00FEF1FEF23
:10393000980104C001E010E020E030E050E060E0D9
:1039400070E08A81F7011995DCCFDF91CF911F914B
:103950000F91FF90EF90DF900895FC018381082E76
:10396000000C990B08952F923F925F926F927F9275
:103970008F929F92AF92BF92CF92DF92EF92FF927F
:103980000F931F93CF93DF93CDB7DEB762970FB638
:10399000F894DEBF0FBECDBF9A8B898B1B01F894C4
:1039A000DC0115968C90159716967C9016971796B5
:1039B0006C90179718965C90189719966C911997B8
:1039C0001A967C911A971B968C911B971C969C912A
:1039D0001C9778945596AC90B12CC12CD12CE12C2D
:1039E000F12C00E010E0282D372D462D552D0E949A
:1039F0006D35992E29833A834B835C836D837E8357
:103A00008F839887E989FA89F585F987A989BA8921
:103A10001E96BC91BA87E989FA89F785FB87A9893F
:103A2000BA895096BC91BC87E989FA89F189FD87EA
:103A3000A989BA895296BC91BE87E989FA89F38926
:103A4000FF87A989BA895496BC91B88BA984BA8496
:103A5000CB84DC84ED84FE840F2F1B2F0E949036D4
:103A6000B1F109811A812B813C8189859A85AB85C9
:103A7000BC85081B190B2A0B3B0B482D572D662DB7
:103A8000752DA989BA8913968C91F1011995E9814F
:103A9000A989BA891D96EC931D97FA811E96FC930D
:103AA0001E978B811F968C931F979C8150969C9399
:103AB0005097ED815196EC935197FE815296FC936D
:103AC00052978F8153968C93539754969C926296FB
:103AD0000FB6F894DEBF0FBECDBFDF91CF911F911F
:103AE0000F91FF90EF90DF90CF90BF90AF909F909D
:103AF0008F907F906F905F903F902F900895FC0182
:103B00008281082E000C990B08950F931F93CF9379
:103B1000DF93EC01FB014B818C81481769F0042F86
:103B200010E0081B1109012E000C220B330B50E092
:103B300060E070E08A8119958B818C83DF91CF9151
:103B40001F910F9108958FEF9FEF0895DF92EF92ED
:103B5000FF920F931F93CF93DF93EC017B01DD2442
:103B6000D3944A855B856C857D858D819E81AF81EF
:103B7000B885481759076A077B07E8F489858111DA
:103B800005C001E010E020E030E003C00FEF1FEFC0
:103B900098018A81F701199589858D2589878A85FC
:103BA0009B85AC85BD850196A11DB11D8A879B872C
:103BB000AC87BD87D6CFDF91CF911F910F91FF903A
:103BC000EF90DF900895FA0185819681A781B085F5
:103BD0000196A11DB11D85839683A783B0870895A3
:103BE000DC0113968D919C911497DC01ED91FC9171
:103BF0000190F081E02D1994FC018381082E000CC6
:103C0000990B08952F923F924F925F926F927F92FD
:103C10008F929F92AF92BF92CF92DF92EF92FF92DC
:103C20000F931F93CF93DF93CDB7DEB766970FB691
:103C3000F894DEBF0FBECDBF9E8B8D8B1B01FC01A8
:103C40008281882379F0128284A1813011F04FEFB4
:103C500001C041E0042E000C550B660B770B8A0166
:103C60009B01BCC0ED89FE8996AC248135814681DB
:103C700057816085718582859385AFEF0E947B3681
:103C8000A92CB12CC12CD12CE12CF12C00E010E09E
:103C90000E9472360E949835792E29833A834B838D
:103CA0005C836D837E838F839887ED89FE8924856D
:103CB0003585468557856089718982899389AFEFFB
:103CC0000E947B360E9472360E9498354901498BCA
:103CD0005A8BA62F672E582EB92F29813A814B81F6
:103CE0005C816D817E818F81972DED89FE89A4880D
:103CF000B588C688D788E08CF18C028D138D0E9420
:103D0000873629873A874B875C876D877E878F87C1
:103D1000988B940149895A896A2F762D852D9B2F7E
:103D2000A48CB58CC68CD78CE0A0F1A002A113A105
:103D30000E9487362B8B3C8B5A018981848B8A8128
:103D4000858B8B81868B8C81878B8D81808F8E81FB
:103D5000818F8F81828F738E848E958E8989868FD5
:103D60008A89878FA0A361A252A2B3A384A14984A8
:103D70005A846B847C847094609450944094411C69
:103D8000511C611C711CC980DA80EB80FC80F094AE
:103D9000E094D094C094C11CD11CE11CF11C882378
:103DA00071F093018201B701A6018381F101199598
:103DB0000B891C899501A40169897A890FC00B8937
:103DC0001C899501A40169897A89ED89FE8983811D
:103DD000F101199593018201B701A601ED89FE89D0
:103DE0008381F101199566960FB6F894DEBF0FBE78
:103DF000CDBFDF91CF911F910F91FF90EF90DF909A
:103E0000CF90BF90AF909F908F907F906F905F907A
:103E10004F903F902F9008954F925F926F927F92B4
:103E20008F929F92AF92BF92CF92DF92EF92FF92CA
:103E30000F931F93CF93DF93FC01502E612E722EB0
:103E4000832E942ED52FC62FB72FAE2D44A0AF3F73
:103E500019F4A1E04110A0E085A1A81731F1A5A3B4
:103E6000AA2349F026A537A540A951A962A973A99B
:103E700084A995A908C026A137A140A551A562A58E
:103E800073A584A595A5A52CB62CC72CD82CE92CF8
:103E9000FD2E0C2F1B2F0E94723626AB37AB40AF86
:103EA00051AF62AF73AF84AF95AFA41571F1A6A8FF
:103EB000B7A8C0ACD1ACE2ACF3AC04AD15AD252DC8
:103EC000362D472D582D692D7D2F8C2F9B2F0E942D
:103ED0009036D8F0A4A388E0A89FE00DF11D11242E
:103EE000EF012496248139814A815B816C817D8137
:103EF0008E819F81A1E00E947B36248339834A838F
:103F00005B836C837D838E839F83DF91CF911F9131
:103F10000F91FF90EF90DF90CF90BF90AF909F9068
:103F20008F907F906F905F904F900895A7E7B6E0D5
:103F30001896ED91FC91199716968D919C91179773
:103F40001994A7E7B6E01E96ED91FC911F971C9679
:103F50008D919C911D971994A7E7B6E05496ED9129
:103F6000FC91559752968D919C9153971994A7E780
:103F7000B6E05A96ED91FC915B9758968D919C9185
:103F800059971994A7E7B6E09096ED91FC91919717
:103F90005E968D919C915F971994A7E7B6E09696EF
:103FA000ED91FC91979794968D919C91959719948A
:103FB000A7E7B6E09C96ED91FC919D979A968D911E
:103FC0009C919B971994CF92DF92EF92FF920F935F
:103FD0001F93CF93DF93EC0189A5882361F19BA503
:103FE000EA85FB858E85992301F11BA69181892B9A
:103FF0008183EA85FB8592818E85809589238283E2
:10400000EA85FB8591818E85809589238183EA8568
:10401000FB8592818E85809589238283EC85FD8541
:1040200092818F85892B828306C09081892319F024
:1040300081E08BA719A689A58111F6C09BA5EA8509
:10404000FB858E85992301F11BA69181892B8183A4
:10405000EA85FB8592818E85892B8283EA85FB85A3
:1040600091818E85809589238183EA85FB85928164
:104070008E85809589238283EC85FD8592818F854D
:10408000809589238283D0C09081892309F0CCC098
:1040900081E08BA789A78AA58F5F8AA76FA10E945D
:1040A000B53491115BC08889882309F44EC0188A01
:1040B00068A570E080E090E00E94973120E030E059
:1040C00048EC52E40E943D3320E030E040E85FE3FA
:1040D0000E94C6326B017C010E94E72B0BA11CA140
:1040E0002DA13EA1601B710B820B930B0E94973197
:1040F000A70196010E94F8310E94E433698B7A8B04
:104100008B8B9C8B0F89188D298D3A8D061717077D
:104110002807390710F48B019C010F8B188F298F0A
:104120003A8F0B8D1C8D2D8D3E8D06171707280796
:10413000390710F48B019C010B8F1C8F2D8F3E8F44
:104140001E8A1F8E18A219A21AA21AA60E94E72B75
:104150006BA37CA38DA39EA310E01EC00E94E72B3F
:104160000BA11CA12DA13EA1DC01CB01801B910B59
:10417000A20BB30B09891A892B893C8908171907E7
:104180002A073B0708F050C01AA60E94E72B6BA332
:104190007CA38DA39EA311E08E898117C1F01E8B95
:1041A0000E94E72B112329F0CF88D88CE98CFA8C58
:1041B00004C0CB8CDC8CED8CFE8CDC01CB018C0D37
:1041C0009D1DAE1DBF1D8F8F98A3A9A3BAA38D8976
:1041D000181751F10E94E72BCF8CD8A0E9A0FAA0C4
:1041E0006C157D058E059F05F8F01D8BEC81FD811A
:1041F000309759F0612FCE01DF91CF911F910F9130
:10420000FF90EF90DF90CF90199448855985EE810B
:10421000FF81612FCE01DF91CF911F910F91FF9010
:10422000EF90DF90CF901994DF91CF911F910F9174
:10423000FF90EF90DF90CF9008952F923F924F9292
:104240005F926F927F928F929F92AF92BF92CF9226
:10425000DF92EF92FF920F931F93CF93DF93EC01C6
:10426000902E812E722E632E542E452E362E272E02
:104270008B81882319F11B826F816E838A810E9452
:104280005E2B8F81882349F0288D398D4A8D5B8D77
:104290006C8D7D8D8E8D9F8D08C0288939894A89C6
:1042A0005B896C897D898E899F89A92CB82CC72C44
:1042B000D62CE52CF42C032D122D58C08C8188238C
:1042C00009F461C0A884B984CA84DB84EC84FD84C9
:1042D0000E851F85292D382D472D562D652D742DC2
:1042E000832D922D0E94903608F44DC06E8181E09E
:1042F00068276E838A810E945E2B8D81EE818823E0
:10430000D1F08F81E817B9F028A139A14AA15BA1AA
:104310006CA17DA18EA19FA1AFEF0E947B3628A347
:1043200039A34AA35BA36CA37DA38EA39FA3A0E0A4
:104330000E94993631F1EE2349F0A88CB98CCA8CD1
:10434000DB8CEC8CFD8C0E8D1F8D08C0A888B98885
:10435000CA88DB88EC88FD880E891F89292D382DB5
:10436000472D562D652D742D832D922D0E9472366A
:10437000288739874A875B876C877D878E879F87E9
:1043800002C01C82D8CFDF91CF911F910F91FF9077
:10439000EF90DF90CF90BF90AF909F908F907F90E5
:1043A0006F905F904F903F902F9008952F923F9283
:1043B0004F925F926F927F928F929F92AF92BF9235
:1043C000CF92DF92EF92FF920F931F93CF93DF93E1
:1043D000CDB7DEB72A970FB6F894DEBF0FBECDBFBC
:1043E0009A878987502E412ED901942E852E762EBC
:1043F000672EFC018481882399F11482078310873A
:104400002187B2874387548765877687838188238E
:1044100049F027A530A941A952A963A974A985A982
:1044200096A90AC0E985FA85278D30A141A152A13C
:1044300063A174A185A196A1A52CB42C6D01E92CD2
:10444000F82C072D162D0E947236E985FA852787EC
:10445000308B418B528B638B748B858B968BC0C05A
:10446000E985FA858581882309F4BAC0A784B088D4
:10447000C188D288E388F48805891689252D342DD2
:10448000AD01692D782D872D962D0E94903608F468
:10449000A7C068867F828E829D82BC83AB834A825E
:1044A0005982E985FA85638181E068276383828187
:1044B0000E945E2B29813A814B815C816D817E81D6
:1044C0008F819885E985FA85A780B084C184D284DC
:1044D000E384F484058516850E948736922E832E08
:1044E000742E652E562E472E382E292E8381882332
:1044F000F9F0E985FA8527A530A941A952A963A950
:1045000074A985A996A90E9410346B017C01292DFC
:10451000382D472D562D652D742D832D922D0E94FB
:104520001034E985FA85238D348D458D568D1EC056
:10453000E985FA85278D30A141A152A163A174A11B
:1045400085A196A10E9410346B017C01292D382D84
:10455000472D562D652D742D832D922D0E941034DC
:10456000E985FA852789308D418D528D0E94F83179
:104570009B01AC01C701B6010E94C6320E94AA335A
:1045800059016A017B018C0129813A814B815C814F
:104590006D817E818F8198850E947236E985FA85CA
:1045A0002787308B418B528B638B748B858B968BDB
:1045B000A7ACFF96B180C280D380E480F5800681ED
:1045C0001781292D382D472D562D652D742D832DBE
:1045D000922D0E94903621F018F0E985FA85158217
:1045E0002A960FB6F894DEBF0FBECDBFDF91CF91F4
:1045F0001F910F91FF90EF90DF90CF90BF90AF9001
:104600009F908F907F906F905F904F903F902F90F2
:1046100008952F923F924F925F926F927F928F9266
:104620009F92AF92BF92CF92DF92EF92FF920F9341
:104630001F93CF93DF93EC01180129013A014B013D
:104640008A810E94C82B2B8130E0E1E0821793071A
:104650000CF4E0E08A85F885E81711F1FF2349F0B2
:104660002B893C894D895E896F89788D898D9A8DDA
:1046700008C02B853C854D855E856F857889898945
:104680009A8951016201730184010E9472362B8F55
:104690003C8F4D8F5E8F6F8F78A389A39AA3EA8793
:1046A000EF17D9F0AB8CBC8CCD8CDE8CEF8CF8A0E6
:1046B00009A11AA19101A201B301C4010E9490367F
:1046C00060F0E8878C819D81AE81BF810196A11D3C
:1046D000B11D8C839D83AE83BF83DF91CF911F91EA
:1046E0000F91FF90EF90DF90CF90BF90AF909F9091
:1046F0008F907F906F905F904F903F902F90089594
:104700002F923F924F925F926F927F928F929F92E1
:10471000AF92BF92CF92DF92EF92FF920F931F93CF
:10472000CF93DF93EC01180129013A014B018A81F3
:104730000E94C82BE82F8D81FB81E81711F1EF173C
:1047400048F42E853F85488959896A897B898C89F7
:104750009D8908C02E813F81488559856A857B8562
:104760008C859D8551016201730184010E9472361E
:104770002E8B3F8B488F598F6A8F7B8F8C8F9D8FAD
:10478000ED83EF1781F0AE88BF88C88CD98CEA8C96
:10479000FB8C0C8D1D8D9101A201B301C4010E94FF
:1047A000903608F0EB83DF91CF911F910F91FF902E
:1047B000EF90DF90CF90BF90AF909F908F907F90C1
:1047C0006F905F904F903F902F900895AF92BF925F
:1047D000CF92DF92EF92FF920F931F93CF93DF93CD
:1047E000EC018FEFE81202C01A8202C0EE2031F114
:1047F0008A81811125C08C8139D7892B11F42FEF43
:1048000001C021E0922F990F990B392F492F592F71
:10481000692F792F892FAD80BE80CF80D884E9841D
:10482000FA840B851C850E9472362D833E834F834C
:10483000588769877A878B879C8702C080E001C090
:1048400081E08A83DF91CF911F910F91FF90EF90CC
:10485000DF90CF90BF90AF9008957F928F929F92FC
:10486000AF92BF92CF92DF92EF92FF920F931F937E
:10487000CF93DF93EC01722E832E942EA52EB62EAD
:10488000F72EE881F981C680D7808B81EFD6E82E9C
:10489000272D382D492D5A2D6B2D7F2DCE01F60158
:1048A0001995DF91CF911F910F91FF90EF90DF90BD
:1048B000CF90BF90AF909F908F907F9008957F9200
:1048C0008F929F92AF92BF92CF92DF92EF92FF9220
:1048D0000F931F93CF93DF93EC01722E832E942EB0
:1048E000A52EB62EF72EE881F981C680D7808B8160
:1048F000BDD6E82E272D382D492D5A2D6B2D7F2D15
:10490000CE01F6011995DF91CF911F910F91FF9084
:10491000EF90DF90CF90BF90AF909F908F907F905F
:1049200008952F923F924F925F926F927F928F9253
:104930009F92AF92BF92CF92DF92EF92FF920F932E
:104940001F93CF93DF931F92CDB7DEB73C01562E56
:10495000442E2983302E81E792E0D30111969C9357
:104960008E9312966C931297F3011582168217821A
:1049700010862224239421861A961D921D921D9240
:104980001C921D978CE290E00E94B9368C018BE658
:1049900092E0F801918380835282438215821482CF
:1049A00083EE9DE19783868371866086252D052C95
:1049B000000C330BF901EB59FE4FE491F0E0EE0FE0
:1049C000FF1FE55BFE4F85919491D8011B969C9348
:1049D0008E931A97842D042C000C990BFC01EB5933
:1049E000FE4FE491F0E0EE0FFF1FE55BFE4F4591B7
:1049F0005491F80155874487F901E555FE4FE4913C
:104A00001E96EC931E97FC01E555FE4FE4911F9610
:104A1000EC931F9750962C928FEF9FEFDC01F801DB
:104A2000818B928BA38BB48B258A168AD801C78A77
:104A3000D08EE18EF28E838E948EA58EB68E178EDA
:104A400010A211A212A2E9819796EC9397979896DB
:104A50003C92989799962C9299979A961C929A972D
:104A60009B962C92B4D6D80193966D937D938D939B
:104A70009C93969761E0842D4FD660E0852D4CD6AF
:104A8000F301148303830F90DF91CF911F910F9156
:104A9000FF90EF90DF90CF90BF90AF909F908F905E
:104AA0007F906F905F904F903F902F900895CF939D
:104AB000DF93EC018A859B85DC01ED91FC910084FC
:104AC000F185E02D1995892BA9F38A859B85DC0159
:104AD000ED91FC910284F385E02D1995DF91CF9142
:104AE0000895CF93DF93DC011296ED91FC9113971B
:104AF000E60FF71F8081882351F11082660F771F20
:104B00001896ED91FC911997E60FF71FC081D1819E
:104B100016968D919C911797C817D90741F48A81F1
:104B20009B81009779F017969C938E931697C0817E
:104B3000D181209761F0CE010E94352ECE010E94D6
:104B4000513705C017961C921E921697F0CF81E040
:104B5000DF91CF910895DC011296ED91FC911397AE
:104B6000E60FF71F8081882381F0660F771F189664
:104B7000ED91FC911997E60FF71F0190F081E02D60
:104B800020813181FA01318320830895282F3091CB
:104B9000C405313208F04AC08091A1058111FCCFD3
:104BA0009091A70642E04093A1052093A0052FEF26
:104BB00020939F0510929E0530939D05E4EAF5E051
:104BC000ADE7B5E020E0321721F041914D932F5F22
:104BD000FACF10927C0520917C05990F922B90932F
:104BE0007C0590917B05913061F410927B0590914A
:104BF0007C059093BB009091BC0093FDF8CF95ECA1
:104C000001C095EE9093BC009091A1059230E1F324
:104C100090919F059F3F79F080919F05803241F0F0
:104C200080919F05803331F084E005C081E003C0AE
:104C300082E001C083E01092A3051092C405109297
:104C4000A2050895682F88EA96E00C9445140F9306
:104C50001F93CF93DF93062FD72F142FC52F90913B
:104C6000620621E02093A2059093A7061092A30567
:104C70001092C40524E0829FC0011124BC016A5F28
:104C80007F4F88EA96E00E944514802F9D2FDADF3F
:104C90008D2F90E0D7DF812F9C2FD4DF8C2F90E0D9
:104CA000D1DF81E0DF91CF911F910F916FCFCF9333
:104CB000C62F9091620621E02093A2059093A7064B
:104CC0001092A3051092C405682F88EA96E00E940E
:104CD00045146C2F88EA96E00E94451481E0CF913C
:104CE00055CFCF93DF93EC0185E490E099838883DF
:104CF0001D821C821F821E828AE890E00E94B936C3
:104D00009987888785E490E00E94B936FC0111926A
:104D10009C012B5B3F4F11922E173F07E1F79B83BE
:104D20008A83DF91CF9108958F929F92AF92BF9225
:104D3000CF92DF92EF92FF92CF9326E636E646E6D9
:104D40005FE30E94F8319B01AC0160E27CEB8EEBEB
:104D500095E40E943D3320E030E040E85FE30E94AC
:104D6000C53220E030E040E05FE30E94C6320E949E
:104D70004E340E94E433F62E8091620691E09093C7
:104D8000A2058093A7061092A3051092C40560E0C7
:104D900088EA96E00E94451481E0F8DE8091620680
:104DA0009091A1059111FCCF91E09093A105909372
:104DB000A0052FEF20939F0510929E0510929D0550
:104DC00090937C0590917C05880F892B80937C05BE
:104DD00080917B05813061F410927B0580917C0588
:104DE0008093BB008091BC0083FDF8CF85EC01C0AF
:104DF00085EE8093BC008091A1058130E1F3809124
:104E00009E05811103C090919E0501C091E0ADE720
:104E1000B5E0EBE5F5E080E0891721F02D912193D5
:104E20008F5FFACF10925A058093590588EA96E071
:104E30000E94FD13C82F682F6F76606180E037DF16
:104E40006F2D8EEF34DF6C2F80E031DFC0D46B012B
:104E50007C0185E0882E912CA12CB12CB8D4DC01EA
:104E6000CB018C199D09AE09BF09883E9340A1056D
:104E7000B105A0F321E0821A9108A108B10888EEDB
:104E8000C80E83E0D81EE11CF11C81149104A1041A
:104E9000B10421F76C2F616A80E0CF91FF90EF9011
:104EA000DF90CF90BF90AF909F908F9000CFDB01AD
:104EB00014964D915C9115976D917C91DC01ED916B
:104EC000FC910280F381E02D1994DC01ED91FC91BD
:104ED0000190F081E02D6FEF1994FC0122812223D3
:104EE000D1F1128210925A05109259051092A30521
:104EF0001092C4051092A10581E08093A005109244
:104F00007B0561E084E1DAD361E085E1D7D380916C
:104F1000B9008E7F8093B9008091B9008D7F809316
:104F2000B90088E48093B80085E48093BC008BEEE0
:104F300093E190935805809357058CEE93E19093FD
:104F400056058093550560E080E0B1DE60E070E0DA
:104F500080E792E4E9CE08950F931F93CF93C62F75
:104F60008A01BBDF0115110529F440E050E060E043
:104F700070E103C0A80160E070E08C2FCF911F9119
:104F80000F9165CE0F931F93CF93DF931F921F92C4
:104F9000CDB7DEB7082F880F110B80916D06909169
:104FA0006E06081719070CF5AE014F5F5F4FB80189
:104FB0008DE696E0D0DD8823C1F080916D0690915A
:104FC0006E060817190724F4B8018DE696E089DD0E
:104FD00089819A81DC01ED91FC910084F185E02DBD
:104FE000199589819A810E9451370F900F90DF9116
:104FF000CF911F910F9108950F931F93CF93DF933C
:105000001F921F92CDB7DEB78DE0BCDF88E290E043
:105010000E94B9368C0181E892E0F8019183808387
:105020008DE0828381E08383848385838683878385
:1050300010861186128613861486158616861786A4
:1050400090E5908B83EC818B128A138A148A158ADF
:10505000168A178A908F818F128E138E148E158E5A
:10506000168E178E8AE080A311A212A213A214A298
:1050700015A216A217A261E08DE04ED31A83098310
:10508000AE014F5F5F4F6DE070E08DE696E005D6B4
:105090000F900F90DF91CF911F910F9108950F9373
:1050A0001F93CF93DF931F921F92CDB7DEB782304D
:1050B000B9F08330C1F09EEE980F9430F8F4E7E138
:1050C000E81BE43049F0E53049F0E33019F0E898A6
:1050D000E2E00BC0E99809C0EA9807C0EB9805C068
:1050E000EC98E0E002C0ED98E1E0F0E0EE0FFF1F89
:1050F000EF5FFD4F21E832E131832083082F880FD5
:10510000110B8091630690916406081719070CF53E
:10511000AE014F5F5F4FB80183E696E01CDD882348
:10512000C1F080916306909164060817190724F472
:10513000B80183E696E0D5DC89819A81DC01ED91A6
:10514000FC910084F185E02D199589819A810E9456
:1051500051370F900F90DF91CF911F910F910895CC
:105160003F924F925F926F927F928F929F92AF92F7
:10517000BF92CF92DF92EF92FF920F931F93CF9344
:10518000DF9300D0CDB7DEB77C01462EC62ED12CE2
:10519000DC018C91B601681B7109072E000C880B8D
:1051A000990B0E94993120E030E040E05EE30E94DC
:1051B000F8310E942A330E94E433B62E4701B2E050
:1051C0008B0E911C9A828982898188198B1540F4F3
:1051D000C7016DDCE981FA818193FA83E983F4CF19
:1051E000EB2DF0E0FA83E983EE0DFF1D3180D7014E
:1051F0001D911850B3946B2C712C111614F59D0150
:10520000912C48E050E0411B510917FD539559017D
:10521000AA1ABB0AA614B704D4F5F901808190E05C
:10522000BC01012E02C0759567950A94E2F76929C1
:1052300061939F01042E01C0880F0A94EAF7982E0B
:10524000E6CF112321F111959D01260D371D912CDB
:1052500088E090E05C01A11AB10817FDB3942A1709
:105260003B07A9F021503109F901808190E0AC01A0
:10527000012E01C0440F0A94EAF7492940830A2C01
:1052800002C0959587950A94E2F7982EE8CFF3012E
:1052900083E0EE0FFF1F8A95E1F7612C712C812CC2
:1052A000912CA12C512CB12C10E03897E83F8FEFB6
:1052B000F807A1F02D9130E040E050E060E070E0B0
:1052C00080E090E00E2F0E943B36622A732A842AE7
:1052D000952AA62A572AB82A192BE7CFD7018C91ED
:1052E000B42DB81B8B2F082E000C990B28E030E052
:1052F000B9010E94C134281B390B27703327E22FD4
:10530000D7012C93F0E020E030E040E050E060E096
:1053100070E080E090E0FE1730F401E00E943B3640
:105320002160FF5FF8CF2321F7012183E981FA8112
:105330003196EE0FEE0FEE0F8E2F90E08C199D0937
:105340009A8389839301A4016A2D752D8B2D912F4A
:1053500009810E9456367901142F5B836983B72F28
:10536000A82FF92FE0E020E030E040E050E060E0DE
:1053700070E080E090E04E1631F001E00E943B3694
:105380002160EF5FF8CF2E213F214123EB815E2387
:10539000E9816E237B238A239F230F900F900F9028
:1053A000DF91CF911F910F91FF90EF90DF90CF9001
:1053B000BF90AF909F908F907F906F905F904F9035
:1053C0003F900895CF93DF93EC018A859B85DC01A4
:1053D000ED91FC910084F185E02D1995892BA9F3BD
:1053E0008A859B85DC01ED91FC910484F585E02D97
:1053F0001995DF91CF91089590E0FC013197E2314A
:10540000F10508F04EC08827E758FF4F8F4F0C94E6
:105410001235809180008F7703C0809180008F7D4E
:1054200080938000089580918000877FF9CF84B5B4
:105430008F7702C084B58F7D84BD08958091B000C0
:105440008F7703C08091B0008F7D8093B000089566
:10545000809190008F7707C0809190008F7D03C06E
:1054600080919000877F8093900008958091A000A4
:105470008F7707C08091A0008F7D03C08091A0002E
:10548000877F8093A0000895809120018F7707C0C7
:10549000809120018F7D03C080912001877F8093C0
:1054A000200108950E94BA382F923F924F925F9246
:1054B0006F927F928F929F92AF92BF92CF92DF9224
:1054C000EF92FF920F931F93CF93DF93CDB7DEB789
:1054D000A7970FB6F894DEBF0FBECDBF3C0108A35F
:1054E00019A32AA33BA34CA35DA36EA37FA3C3016F
:1054F00069DF8D36B9F180538A3008F456C0C30194
:10550000D6DAF5CF93E1921508F459C0F401E20D13
:10551000F11D80832394C301CADAC30153DF805392
:105520008A3080F31123F1F0E1E0E88F198E1A8EB2
:105530001B8E1C8E1D8E1E8E1F8E412C512C1D8A83
:105540001E8A812C912C312C1F8A21103AC048A22E
:1055500059A2FD89FAA38E898BA38CA29DA23EA29B
:105560009F899FA3C301A3DA28A139A14AA15BA106
:105570006CA17DA18EA19FA1A7960FB6F894DEBF66
:105580000FBECDBFDF91CF911F910F91FF90EF9094
:10559000DF90CF90BF90AF909F908F907F906F9053
:1055A0005F904F903F902F900895FE0131964F01EC
:1055B00084E111928A95E9F711E0212CAECF10E039
:1055C000AACF2A94E1E0F0E0EC0FFD1FE20DF11DFF
:1055D0002081A88CB98CCA8CDB8CEC8CFD8C0E8D58
:1055E0001F8D30E040E050E060E070E080E090E04F
:1055F0000E941A355201CD88DE887401032D1F895F
:105600000E94723629014D8B5E8B4B01382E9F8B89
:1056100028A139A14AA15BA16CA17DA18EA19FA166
:105620005201CD88DE887401032D1F890E949036B7
:1056300008F498CF8AE0A82EB12CC12CD12CE12CF3
:10564000F12C00E010E0288D398D4A8D5B8D6C8D3A
:105650007D8D8E8D9F8D0E941A35288F398F4A8FB0
:105660005B8F6C8F7D8F8E8F9F8F6FCFCF93DF93EC
:10567000282F30E0F901EF50FE4F8491F901E555F4
:10568000FE4FD491F901EB59FE4FC491CC2389F020
:105690008111B2DEEC2FF0E0EE0FFF1FE55BFE4F55
:1056A000A591B491EC91ED2381E090E021F480E0AC
:1056B00002C080E090E0DF91CF9108951F93CF93D7
:1056C000DF93282F30E0F901EF50FE4F8491F9016C
:1056D000E555FE4FD491F901EB59FE4FC491CC230F
:1056E000B9F0162F811188DEEC2FF0E0EE0FFF1FCE
:1056F000EF5CFE4FA591B4919FB7F894111104C0CF
:105700008C91D095D82302C0EC91DE2BDC939FBF07
:10571000DF91CF911F910895CF93DF9390E0FC012B
:10572000E555FE4F2491FC01EB59FE4F84918823EF
:1057300061F190E0880F991FFC01E95EFE4FC59171
:10574000D491FC01EF5CFE4FA591B491611109C0A9
:105750009FB7F8948881209582238883EC912E232B
:105760000BC0623061F49FB7F8948881322F309576
:1057700083238883EC912E2B2C939FBF06C08FB779
:10578000F894E8812E2B28838FBFDF91CF91089565
:10579000863308F0865390917B00282F2870977FDE
:1057A000922B90937B008770806480937C00809123
:1057B0007A00806480937A0080917A0086FDFCCF25
:1057C000809178002091790090E0922B08953FB766
:1057D000F8948091C4069091C506A091C606B09138
:1057E000C70626B5A89B05C02F3F19F00196A11D3D
:1057F000B11D3FBFBA2FA92F982F8827820F911D67
:10580000A11DB11DBC01CD0142E0660F771F881FAD
:10581000991F4A95D1F708951F920F920FB60F92D4
:1058200011242F933F938F939F93AF93BF938091B6
:10583000C0069091C106A091C206B091C3063091F6
:10584000BF0623E0230F2D3720F40196A11DB11DC3
:1058500005C026E8230F0296A11DB11D2093BF06A7
:105860008093C0069093C106A093C206B093C3066E
:105870008091C4069091C506A091C606B091C70656
:105880000196A11DB11D8093C4069093C506A093F7
:10589000C606B093C706BF91AF919F918F913F917C
:1058A0002F910F900FBE0F901F9018950F931F937D
:1058B000CF93DF93EC0188819981009729F02A81A9
:1058C0003B812617370788F48B016F5F7F4F0E945B
:1058D000DA37009761F0998388831B830A832C81D0
:1058E0003D81232B11F4FC01108281E001C080E096
:1058F000DF91CF911F910F910895EF92FF920F9337
:105900001F93CF93DF936115710511F480E01BC0E5
:1059100041155105B9F07B01EC018C819D818A0113
:10592000080F191FB801CE01C1DF882379F3288140
:1059300039818C819D81B701820F931F0E94C738E6
:105940001D830C8381E0DF91CF911F910F91FF9018
:10595000EF900895CF93DF93EC01888199810097B0
:1059600011F00E945137198218821D821C821B82FD
:105970001A82DF91CF910895EF92FF920F931F93B8
:10598000CF93DF93CDB7DEB72D970FB6F894DEBF78
:105990000FBECDBF7C01CB01BA012AE08E010F5FA3
:1059A0001F4FA8017AD4F80101900020E9F7319740
:1059B000AF01401B510BB801C7019FDF811102C02D
:1059C000C701C8DFC7012D960FB6F894DEBF0FBE22
:1059D000CDBFDF91CF911F910F91FF90EF90089570
:1059E000EF92FF920F931F93CF93DF93CDB7DEB764
:1059F0002E970FB6F894DEBF0FBECDBF7C01CB0152
:105A0000BA012AE08E010F5F1F4FA80138D4F801B8
:105A100001900020E9F73197AF01401B510BB8010D
:105A2000C7016BDF811102C0C70194DFC7012E9649
:105A30000FB6F894DEBF0FBECDBFDF91CF911F919F
:105A40000F91FF90EF900895EF92FF920F931F93A5
:105A5000CF93DF93CDB7DEB728970FB6F894DEBFAC
:105A60000FBECDBF7C01CB014AE08E010F5F1F4FFF
:105A7000B801FBD3F80101900020E9F73197AF019D
:105A8000401B510BB801C70138DF811102C0C701AB
:105A900061DFC70128960FB6F894DEBF0FBECDBFF9
:105AA000DF91CF911F910F91FF90EF900895EF92AA
:105AB000FF920F931F93CF93DF9300D01F92CDB728
:105AC000DEB77C01862F4AE08E010F5F1F4FB801C1
:105AD00090E0CBD3F80101900020E9F73197AF01B6
