:1000000024C100000C94CD320C94A2320C947732AF
:100010000C944C320C9421320C94F6310C94CB316C
:100020000C94A03143C1000041C100003FC1000059
:100030003DC100000C94881D39C1000037C100008B
:1000400035C1000033C1000031C100002FC10000E4
:100050002DC100002BC1000029C100000C945631B5
:1000600025C100000C940F2B0C94E62A1FC1000040
:100070001DC100001BC1000019C1000017C1000014
:1000800015C1000013C1000011C100000FC1000024
:100090000DC100000BC1000009C100000C94F83232
:1000A00005C1000003C1000001C10000FFC0000045
:1000B000FDC00000FBC00000F9C00000F7C0000058
:1000C000F5C00000F3C00000F1C00000EFC0000068
:1000D000EDC00000EBC00000E9C00000E7C0000078
:1000E000E5C00000BC1985198D199919A619C81900
:1000F000D5199D2AA02A8F2A932A992AD72AA42A79
:10010000A82AAE2AB22AB62ABC2AC02AC42AD72ACA
:10011000CA2ACE2AD22A723468346A346C346E34D5
:100120007434763400002100240027002A002D00BA
:100130003000330001010000040107010A01000042
:1001400020002300260029002C002F00320000018F
:10015000000003010601090100000A0B02090C0D51
:100160000E0807030401000000000000000000006A
:10017000000000000000000000000000000000007F
:10018000000000001211100000000000000000003C
:10019000000000000000000000000000000001025C
:1001A0001020200808102040102040800201020189
:1001B0000804020101020408102040808040201041
:1001C000080402018004020180402010080402019A
:1001D0000804020101020408102040800102040802
:1001E0001020408000002200250028002B002E0057
:1001F0003100340002010000050108010B01050572
:100200000505070508080808020202020A0A08088C
:1002100004040404010101010101010103030303BA
:1002200003030303040707070C0C0C0C0C0C0C0C49
:100230000202020206060606060606060B0B0B0B5A
:100240000B0B0B0B02002E37263711241FBECFEFEE
:10025000D1E2DEBFCDBF00E00CBF28E0A8E1B5E0F1
:1002600001C01D92A23EB207E1F715E0A0E0B2E0A6
:10027000EAE3F5E800E00BBF02C007900D92A83159
:10028000B107D9F711E0C4E2D1E000E006C0219740
:100290000109802FFE010E94C03EC332D10780E0D9
:1002A0000807A9F70E941E350C948C42A9CE2F9204
:1002B0003F924F925F926F927F928F929F92AF92F6
:1002C000BF92CF92DF92EF92FF920F931F93CF9343
:1002D000DF93CDB7DEB7C155D1090FB6F894DEBFB5
:1002E0000FBECDBF0E9431318B019C0160939B05F5
:1002F00010939C0520939D0530939E0510929F05B9
:100300001092A0051092A1051092A2052091260539
:10031000309127053DA32CA3190133E0230E311C96
:10032000AE014F5F5F4F2A01809124059091250512
:10033000DC01ED91FC910084F185E02D1995892B6C
:1003400011F40C94161280912005909121058230B1
:10035000910511F00C94720BC1010E947425813635
:1003600009F049C00FEF10E020E030E040E050E03D
:1003700060E070E0C1010E94DB26F22E20E030E058
:1003800040E050E060E070E0C1010E94DB26E22E18
:100390000F2D10E06FE075E0CE0108960E944F1D12
:1003A000BE01685F7F4FC2010E94131D61EE72E0C3
:1003B000C2010E94F71CB8010E94941C67EF72E012
:1003C0000E94F71C6E2D70E00E94941C6FEF72E08B
:1003D0000E94F71CBC0180912405909125050E9484
:1003E000D82AC2010E940E1DCE0108960E940E1D41
:1003F000D801EC9299CF823609F042C005E410E0B2
:1004000020E030E040E050E060E070E0C1010E9498
:10041000DB26F22E01E020E030E040E050E060E03A
:1004200070E0C1010E94DB26122F6F2D8CA19DA1CF
:100430000E94AE3461E08F2D0E94DF2B61E011112C
:1004400001C060E08F2D0E946D2B6FE075E0CE0142
:1004500008960E944F1DBE01685F7F4FC2010E9437
:10046000131D62E073E0C2010E94F71C6F2D0E9411
:10047000C81C63E173E00E94F71C612F0C94940A7E
:10048000803709F077C105E410E020E030E040E07B
:1004900050E060E070E0C1010E94DB26B22E01E076
:1004A00020E030E040E050E060E070E0C1010E94F8
:1004B000DB2688248394A0E00E94474009F4812C25
:1004C0000FEF1FEF2FEF3FEF4FEF5FEF6FEF7FEF7C
:1004D000C1010E94DB2628A33EA34FA358A72EA745
:1004E0003FA748AB59AB2FEF3FEF4FEF5FEF6FEFF9
:1004F0007FEFC1010E94DB2629A73AA74BA75CA783
:100500002AAB3BAB4CAB5DAB2FEF3FEF4FEF5FEF59
:100510006FEF7FEFC1010E94DB263901942EA52EDB
:100520006901E42EF52E6B2D8CA19DA10E94AE34A5
:1005300088E290E00E9467408C0181E992E0F80136
:1005400091838083B28281E083838483E1E093019D
:10055000492D5A2D60E070E080E090E0A0E00E941C
:10056000474009F4E0E0D8011596EC9315971696EC
:100570008C92169717968C92179718961C9218972C
:1005800019961C9219971A961C921A971B961C92F0
:100590001B971C961C921C971D961C921D971E96CD
:1005A0001C921E971F961C921F97E8A15096EC93E1
:1005B0005097FEA15196FC9351972FA152962C93E0
:1005C000529738A553963C93539754961C92549740
:1005D00055961C92559756961C92569757961C9274
:1005E000579749A558964C9358975AA559965C9396
:1005F00059978BA55A968C935A979CA55B969C937A
:100600005B975C961C925C975D961C925D975E96DC
:100610001C925E975F961C925F9790966C92909753
:1006200091967C92919792969C9292979396AC9287
:10063000939794961C92949795961C92959796965C
:100640001C92969797961C9261E08B2D0E94DF2B4F
:100650001A8309836B2D70E0A20187E597E00E9461
:100660009128C114D104E104F10439F46BE173E081
:10067000C2010E944F1D10E018C06FE075E0CE016E
:1006800044960E944F1DBE016C5E7F4FCE010E96B8
:100690000E94131DB701A601CE010E960E942A1CCE
:1006A000BC01C2010E94131D11E06FE075E0CE0194
:1006B0004A960E944F1DBE01665E7F4FCE0108968E
:1006C0000E94131D64E273E0CE0108960E94F71C9D
:1006D0006B2D0E94C81C64E373E00E94F71C682D18
:1006E00070E00E94941C62E473E00E94F71C4EA527
:1006F0005FA568A979A90E942A1C61E573E00E94A0
:10070000F71C4AA95BA96CA97DA90E942A1C61E675
:1007100073E00E94F71C7C014D815E8169817A81C2
:100720000E94EB1B811103C0C7010E94181C6FEFD0
:1007300072E0C7010E94F71CBC01809124059091D2
:1007400025050E94D82ACE0108960E940E1DCE01D2
:100750004A960E940E1DC2010E940E1D112309F42B
:10076000E3CDCE010E960E940E1DCE0144960E944E
:100770000E1DDACD833609F073C205E410E020E0E7
:1007800030E040E050E060E070E0C1010E94DB2614
:10079000722E0FEF1FEF2FEF3FEF4FEF5FEF6FEF77
:1007A0007FEFC1010E94DB2628A33EA34FA358A7D9
:1007B00029AF3AAF4BAF5CAF2FEF3FEF4FEF5FEF9B
:1007C0006FEF7FEFC1010E94DB26622E39A74AA797
:1007D0005BA72DAF3EAF4FAF21965FAF21972FEFB5
:1007E0003FEF4FEF5FEF6FEF7FEFC1010E94DB261E
:1007F0002CA73EA74FA758AB22962FAF2297239640
:100800003FAF239724964FAF249725965FAF259748
:100810002FEF3FEF4FEF5FEF6FEF7FEFC1010E94D0
:10082000DB2629AB3AAB4BAB5CAB26962FAF2697BA
:1008300027963FAF279728964FAF289729965FAF07
:1008400029972FEF3FEF4FEF5FEF6FEF7FEFC10182
:100850000E94DB262A962FAF2A972B963FAF2B9725
:100860002C964FAF2C972D965FAF2D97672D8CA1AF
:100870009DA162962FAF62972F963FAF2F976096FC
:100880004FAF609761965FAF61970E94AE3487E487
:1008900090E00E9467404C018BE192E0D4011196F8
:1008A0009C938E9312967C92129781E014968C936F
:1008B000149715968C93159716968C931697E8A116
:1008C0005F96EC935F97FEA19096FC9390978FA113
:1008D00091968C93919798A592969C9392979396C4
:1008E0001C92939794961C92949795961C92959728
:1008F00096961C92969797966C929797E9A59896DC
:10090000EC939897FAA59996FC9399978BA59A964C
:100910008C939A979B961C929B979C961C929C9763
:100920009D961C929D979E961C929E979CA59F9625
:100930009C939F97EEA5D096EC93D097FFA5D19668
:10094000FC93D19788A9D2968C93D297D3961C9278
:10095000D397D4961C92D497D5961C92D597D696B9
:100960001C92D69799A9D7969C93D797EAA9D8961F
:10097000EC93D897FBA9D996FC93D9978CA9DA96D2
:100980008C93DA97DB961C92DB97DC961C92DC97B3
:10099000DD961C92DD97DE961C9261E0872D0E9409
:1009A000DF2B872D0E94452B61E062962FAD629769
:1009B0002F963FAD2F9760964FAD609761965FADD4
:1009C0006197892B09F460E0D40113966C932DABE9
:1009D0003EAB4FAB58AF60E070E080E090E0A0E04D
:1009E0000E94474029F4B1E0BDAB1EAA1FAA18AE71
:1009F00028A13EA14FA158A560E070E080E090E002
:100A0000A62CB9A4CAA4DBA4E12CF12C00E010E0D0
:100A10000E943E4088F4262D3B2DA601A8A0BEA032
:100A2000CFA0D8A40E9435400E94BE3DF401678B40
:100A3000708F818F928F1CC028A13EA14FA158A515
:100A400060E070E080E090E0A62CB9A4CAA4DBA42A
:100A5000E12CF12C00E010E00E9435400E94BE3DE8
:100A6000DC01CB01B058F401878B908FA18FB28F3E
:100A70002DA93EA94FA958AD60E070E080E090E05C
:100A80000E94BE3D68A379A38AA39BA39B01AC01EE
:100A9000D40157966D917D918D919C915A970E94AA
:100AA000EB3CF401678B708F818F928F2CA53EA554
:100AB0004FA558A960E070E080E090E0A9A8BAA82E
:100AC000CBA8DCA8E12CF12C00E010E00E943E4015
:100AD00090F49501A601ACA4BEA4CFA4D8A80E940E
:100AE00035400E94BE3DD4015B966D937D938D93FE
:100AF0009C935E971CC02CA53EA54FA558A960E00D
:100B000070E080E090E0A9A8BAA8CBA8DCA8E12C0E
:100B1000F12C00E010E00E9435400E94BE3DDC0157
:100B2000CB01B058F401838F948FA58FB68F28A185
:100B300039A14AA15BA1D4015B966D917D918D9104
:100B40009C915E970E94EB3CF401638F748F858FBC
:100B5000968FFF962DA920833EA931834FA942830A
:100B600058AD538314821582168217829A82898225
:100B7000672D70E0A20187E597E00E9491286FE061
:100B800075E0CE0108960E944F1DBE01685F7F4F41
:100B9000C2010E94131D6FE673E0C2010E94F71CA0
:100BA000672D0E94C81C6FE773E00E94F71C49ADD7
:100BB0005AAD6BAD7CAD0E942A1C64E973E00E94C3
:100BC000F71C4DAD5EAD6FAD21967FAD21970E94B4
:100BD0002A1C68EA73E00E94F71C22964FAD229708
:100BE00023965FAD239724966FAD249725967FAD0E
:100BF00025970E942A1C6EEB73E00E94F71C269634
:100C00004FAD269727965FAD279728966FAD28970B
:100C100029967FAD29970E942A1C63ED73E00E94FC
:100C2000F71C2A964FAD2A972B965FAD2B972C96E3
:100C30006FAD2C972D967FAD2D970E942A1C6FEFDC
:100C400072E00E94F71CBC0180912405909125055B
:100C50000E94D82AC2010E940E1DCE01089687CD9F
:100C60008137C1F50FEF1FEF2FEF3FEF4FEF5FEF32
:100C70006FEF7FEFC1010E94DB26C22ED32EE42E40
:100C8000F52E88E1C816D104E104F10428F488E1C6
:100C9000C82ED12CE12CF12C8CA19DA10E941C29E5
:100CA000C701B6010E94453B0E94CF1A6FE075E074
:100CB000CE0108960E944F1DBE01685F7F4FC201A2
:100CC0000E94131D6EED73E0C2010E94F71CB70174
:100CD000A601B3CF873709F062C000E110E020E041
:100CE00030E040E050E060E070E0C1010E94DB26AF
:100CF000D22E0FEF1FEF2FEF3FEF4FEF5FEF6FEFB2
:100D00007FEFC1010E94DB267901A9016D2D8CA125
:100D10009DA10E9429346FE075E0CE014A960E94A1
:100D20004F1DBE01665E7F4FCE0108960E94131DC7
:100D30006FEF73E0CE0108960E94F71C6D2D0E94A4
:100D4000C81C63ED73E00E94F71C8C014AE0B201FD
:100D5000C7010E941C3BF20101900020E9F7319786
:100D6000AF0144195509B201C8010E94EB1B811162
:100D700003C0C8010E94181C6FEF72E0C8010E94F6
:100D8000F71CBC0180912405909125050E94D82A6A
:100D9000CE0108960E940E1DCE014A96E8CC8337FC
:100DA00011F505E410E020E030E040E050E060E0C4
:100DB00070E0C1010E94DB26622F8CA19DA162968A
:100DC0002FAF62970E94AE346FE075E0CE010896B7
:100DD0000E944F1DBE01685F7F4FC2010E94131D1C
:100DE0006DE174E09AC3843709F088C005E410E02F
:100DF00020E030E040E050E060E070E0C1010E949F
:100E0000DB26922E0FEF1FEF2FEF3FEF4FEF5FEF3D
:100E10006FEF7FEFC1010E94DB26722E832E28A385
:100E200039A34AA35BA32FEF3FEF4FEF5FEF6FEFC5
:100E30007FEFC1010E94DB2659018A0180911F05C5
:100E40000E949C2B90921F05B501C8010E94453B52
:100E50002FE632E143E85AE30E94A63B6B017C0196
:100E600020E030E0A9010E945F3E20E030E040E059
:100E70005FE387FD05C0C701B6010E94743C04C052
:100E8000C701B6010E94733C0E948D3D28A139A183
:100E90004AA15BA1232B242B252B61F06115710541
:100EA0008105910539F09B01AC01672D782D892DC5
:100EB0000E941B2C6FE075E0CE0108960E944F1D2A
:100EC000BE01685F7F4FC2010E94131D6CE274E097
:100ED000C2010E94F71C692D0E94C81C6BE374E0DC
:100EE0000E94F71C48A159A16AA17BA10E942A1C5B
:100EF00063ED73E00E94F71CA501F1C3823409F091
:100F0000BEC005E410E020E030E040E050E060E0EA
:100F100070E0C1010E94DB26F22E0FEF1FEF2FEFD2
:100F20003FEF4FEF5FEF6FEF7FEFC1010E94DB26D6
:100F3000722E832E942EA52E2FEF3FEF4FEF5FEFF3
:100F40006FEF7FEFC1010E94DB26B22EC32ED42E9D
:100F5000E52E10E020E030E040E050E060E070E09E
:100F6000C1010E94DB26622E6F2D8CA19DA10E94E3
:100F700049348FE390E00E9467408C018BE292E05D
:100F8000D80111969C938E9381E012968C931297C0
:100F90001396FC9280E1F8013496DF01282F1D9210
:100FA0002A95E9F77096DF011D928A95E9F782E0AC
:100FB000F80185A376A287A290A6A1A612A613A6E1
:100FC00014A615A6B6A6C7A6D0AAE1AA12AA13AA65
:100FD00014AA15AA16AA17AA10AE11AE12AE13AE15
:100FE00014AE15AE862D611001C081E0D801DE96E9
:100FF0008C9362E08F2D0E94DF2B8F2D0E94452B5A
:10100000F80184A31A8309836F2D70E0A2018DE497
:1010100097E00E94912841E065E278E28F2D0E94DE
:1010200048196FE075E0CE0108960E944F1DBE0181
:10103000685F7F4FC2010E94131D67E474E0C20124
:101040000E94F71C6F2D0E94C81C68E574E00E9486
:10105000F71C472D582D692D7A2D0E942A1C68E611
:1010600074E00E94F71C4B2D5C2D6D2D7E2D0E948F
:101070002A1C68E774E00E94F71C662D55C2833471
:1010800009F0AEC005E410E020E030E040E050E0C0
:1010900060E070E0C1010E94DB26722E20E030E0AB
:1010A00040E050E060E070E0C1010E94DB26622E6B
:1010B0000FEF20E030E040E050E060E070E0C10180
:1010C0000E94DB262EA720E030E040E050E060E008
:1010D00070E0C1010E94DB262FA71FEF2FEF3FEF2B
:1010E0004FEF5FEF6FEF7FEFC1010E94DB2628A378
:1010F0003EA34FA358A72FEF3FEF4FEF5FEF6FEFE8
:101100007FEFC1010E94DB2629A73AA74BA7152F25
:10111000672D8CA19DA10E944934662D8CA19DA1B3
:101120000E9449348EE390E00E9467409DA78CA7FF
:1011300089A49AA4ABA4B12EC8A0DEA0EFA0F8A405
:101140000FA52EA5462D672D0E94E2242CA53DA5B6
:101150003A832983672D70E0A2018DE497E00E9415
:1011600091286FE075E0CE0108960E944F1DBE01E8
:10117000685F7F4FC2010E94131D61E874E0C201E5
:101180000E94F71C672D0E94C81C65E974E00E944C
:10119000F71C662D0E94C81C67E974E00E94F71CCA
:1011A00069E974E00E94F71C6EA50E94C81C63EAFE
:1011B00074E00E94F71C6FA50E94C81C68E574E0EB
:1011C0000E94F71C48A15EA16FA178A50E942A1C6D
:1011D00068E674E00E94F71C49A55AA56BA580C279
:1011E0008C3409F0BDC005E410E020E030E040E0C0
:1011F00050E060E070E0C1010E94DB26F22E0FEFAC
:101200001FEF2FEF3FEF4FEF5FEF6FEF7FEFC1016A
:101210000E94DB2659016A012FEF3FEF4FEF5FEF8E
:101220006FEF7FEFC1010E94DB26722E832E942E7A
:10123000E52E6F2D8CA19DA10E9449348EE190E096
:101240000E9467408C018BE392E0D80111969C9339
:101250008E931296FC92129714961C9214971596E0
:101260001C9215971696AC9216971796BC921797E4
:101270001896CC9218971996DC9219971A961C9288
:101280001A971B961C921B971C961C921C971D96D6
:101290001C921D971E967C921E971F968C921F97EC
:1012A00050969C9250975196EC92519752961C9260
:1012B000529753961C92539754961C925497559656
:1012C0001C92559756961C92569757961C92579774
:1012D00058961C92589759961C9259975A961C9258
:1012E0005A975B961C925B975C961C925C975D96F6
:1012F0001C9260E08F2D0E94DF2B8F2D0E94802F8B
:10130000F80183831A8309836F2D70E0A2018DE4B5
:1013100097E00E9491286FE075E0CE0108960E9448
:101320004F1DBE01685F7F4FC2010E94131D69EA15
:1013300074E0C2010E94F71C6F2D0E94C81C68E572
:1013400074E00E94F71CA501B6010E942A1C68E601
:1013500074E00E94F71C472D582D692D7E2D6DCC11
:10136000823509F0B7C005E410E020E030E040E04D
:1013700050E060E070E0C1010E94DB26F22E20E028
:1013800030E040E050E060E070E0C1010E94DB2608
:10139000E22E0FEF20E030E040E050E060E070E04F
:1013A000C1010E94DB26D22E6F2D8CA19DA10E942F
:1013B00049346E2D8CA19DA10E94493486E190E0B4
:1013C0000E9467408C01EBE4F2E0DC011196FC9393
:1013D000EE931396FC9213971496EC92149715962D
:1013E0001C92159716961C92169717961C92179793
:1013F00018961C92189719961C9219971A961C9277
:101400001A971B961C921B971C961C921C971D9654
:101410001C921D971E961C921E971F961C921F973A
:1014200050961C92509751961C92519752961C922E
:10143000529753961C92539754961C928D2DD1100F
:1014400001C081E0D80155968C9362E08F2D0E94F7
:10145000DF2B62E08E2D0E94DF2B8F2D0E94452B0B
:1014600021E0892B09F420E0F80122831A83098303
:101470006F2D70E0A2018DE497E00E94912843E077
:101480006BE578E28F2D0E9448196FE075E0CE0180
:1014900008960E944F1DBE01685F7F4FC2010E94E7
:1014A000131D69EB74E0C2010E94F71C6F2D0E94AE
:1014B000C81C65E974E00E94F71C6E2D0E94C81CD0
:1014C00067E974E00E94F71C68E774E00E94F71C6B
:1014D0006D2D2AC0833559F505E410E020E030E099
:1014E00040E050E060E070E0C1010E94DB26622F26
:1014F0008CA19DA162962FAF62970E9449346FE044
:1015000075E0CE0108960E944F1DBE01685F7F4FB7
:10151000C2010E94131D6EEC74E0C2010E94F71C10
:1015200062962FAD6297622F0E94C81C88CB8435CB
:1015300011F00C94940105E410E020E030E040E06C
:1015400050E060E070E0C1010E94DB26F22E0FEF58
:1015500020E030E040E050E060E070E0C1010E9437
:10156000DB26E22E1FEF2FEF3FEF4FEF5FEF6FEF26
:101570007FEFC1010E94DB2659016A012FEF3FEF87
:101580004FEF5FEF6FEF7FEFC1010E94DB26490154
:101590008A016F2D8CA19DA10E94493483E290E0C5
:1015A0000E9467403C01EBE5F2E0DC011196FC9300
:1015B000EE931296FC9212971396EC921397149650
:1015C0001D921D921D921C9217971B96AC921B9711
:1015D0001C96BC921C971D96CC921D971E96DC9271
:1015E0001E971F961C921F9750961C9250975196CB
:1015F0001C92519752961C92529753968C925397E5
:1016000054969C92549755960C93559756961C93C6
:10161000569757961C92579758961C9258975996DA
:101620001C9259975A961C925A975B961C925B97FC
:101630005C961C925C975D961C925D975E961C92E0
:101640005E975F961C925F9790961C9290979196EA
:101650001C92919792961C9260E08F2D0E94DF2B36
:101660008F2D0E94802F4E2D50E021E0841795078A
:101670000CF020E0F3012087218722877A8269829B
:101680006F2D70E0A2018DE497E00E9491286FE039
:1016900075E0CE0108960E944F1DBE01685F7F4F26
:1016A000C2010E94131D6DED74E0C2010E94F71C7F
:1016B0006F2D0E94C81C61EF74E00E94F71C6E2D14
:1016C0000E94C81C68E574E00E94F71CA501B601E1
:1016D0000E942A1C68E674E00E94F71CA401602F97
:1016E000712FABCA8F3F910509F06FC6C1010E94EF
:1016F0007425182F8E3FA8F48F3718F01F5701E07C
:1017000001C000E0612F8CA19DA10E94AE3461E078
:10171000812F0E94DF2B602F812F0E946D2B0C9454
:101720009401C1011E3F59F40E947425182FC10174
:101730000E947425E12FF0E080830C9494010E94B4
:101740007425ACA1BDA114961C92149713961C92FB
:1017500081111BC067E0C1010E948E25122F61E03C
:10176000C1010E948E25A0E00E94474039F0612F00
:101770008CA19DA10E9449340C949401612F8CA1ED
:101780009DA10E94AE340C949401813009F0CEC02A
:1017900067E0C1010E948E25F22E61E0C1010E9426
:1017A0008E25EE24E394A0E00E94474009F4E12C4A
:1017B00068E1C1010E948E2528A33EA34FA358A72C
:1017C00069A77AA78BA79CA768E1C1010E948E2513
:1017D0002EA73FA748AB59AB6AAB7BAB8CAB9DAB9D
:1017E00068E1C1010E948E2539014A015B016C014B
:1017F0006F2D8CA19DA10E94AE3488E290E00E94E2
:1018000067408C0181E992E0F80191838083F28244
:1018100081E083838483E1E09301A401B501C601E3
:10182000A0E00E94474009F4E0E0D8011596EC934F
:1018300015971696EC9216971796EC92179718969E
:101840001C92189719961C9219971A961C921A971F
:101850001B961C921B971C961C921C971D961C9203
:101860001D971E961C921E971F961C921F97E8A10B
:101870005096EC935097FEA15196FC9351972FA14F
:1018800052962C93529738A553963C93539749A55B
:1018900054964C9354975AA555965C9355978BA59F
:1018A00056968C9356979CA557969C935797EEA562
:1018B0005896EC935897FFA55996FC93599728A9E9
:1018C0005A962C935A9739A95B963C935B974AA9F1
:1018D0005C964C935C975BA95D965C935D978CA935
:1018E0005E968C935E979DA95F969C935F9790966A
:1018F0006C92909791967C92919792968C929297F7
:1019000093969C9293979496AC9294979596BC924A
:1019100095979696CC9296979796DC9261E08F2D4C
:101920000E94DF2B1A8309836F2D54C2823009F085
:1019300056C268E0C1010E948E25722E68E1C10185
:101940000E948E2528A33EA34FA358A7662E79A7F1
:101950008AA79BA768E1C1010E948E252CA73EA7FC
:101960004FA758AB69AB7AAB8BAB9CAB68E1C101BD
:101970000E948E252DAB3EAB4FAB58AF69AF7AAF0F
:101980008BAF9CAF68E1C1010E948E252DAF3EAFA9
:101990004FAF21965FAF219722966FAF2297239684
:1019A0007FAF239724968FAF249725969FAF2597D7
:1019B00068E1C1010E948E25F62E8C01672D8CA155
:1019C0009DA162962FAF62972F963FAF2F9760969B
:1019D0004FAF609761965FAF61972E967FAF2E975E
:1019E0000E94AE3487E490E00E9467404C018BE196
:1019F00092E0D40111969C938E9312967C9212974A
:101A0000E1E01496EC9314971596EC9315971696BF
:101A1000EC931697E8A15F96EC935F97FEA19096E2
:101A2000FC9390978FA191968C93919798A59296FD
:101A30009C93929793966C929397E9A59496EC93C6
:101A40009497FAA59596FC9395978BA596968C936B
:101A500096979CA597969C939797EEA59896EC934E
:101A60009897FFA59996FC93999788A99A968C9335
:101A70009A9799A99B969C939B97EAA99C96EC931D
:101A80009C97FBA99D96FC939D978CA99E968C9301
:101A90009E979DA99F969C939F97EEA9D096EC93B5
:101AA000D097FFA9D196FC93D19788ADD2968C930D
:101AB000D29799ADD3969C93D397EAADD496EC93F5
:101AC000D497FBADD596FC93D5978CADD6968C93D9
:101AD000D6979DADD7969C93D797EEADD896EC93BD
:101AE000D897FFADD996FC93D99721968FAD2197C2
:101AF000DA968C93DA9722969FAD2297DB969C9389
:101B0000DB972396EFAD2397DC96EC93DC97249636
:101B1000FFAD2497DD96FC93DD9725968FAD259735
:101B2000DE968C9361E0872D0E94DF2B872D0E942B
:101B3000452BE1E062962FAD62972F963FAD2F9730
:101B400060964FAD609761965FAD61972E967FADC1
:101B50002E97892B09F4E0E0D4011396EC93269696
:101B60002FAF269727963FAF279728964FAF2897F6
:101B700029965FAF29972A96FFAE2A972B967FAFBB
:101B80002B972C960FAF2C972D961FAF2D976F2D5F
:101B9000C801A0E00E944740C9F4B1E02696BFAF5B
:101BA000269727961FAE279728961FAE2897299627
:101BB0001FAE29972A961FAE2A972B961FAE2B97FA
:101BC0002C961FAE2C972D961FAE2D9728A13EA1C7
:101BD0004FA158A5662D79A58AA59BA5ACA4BEA446
:101BE000CFA4D8A8E9A8FAA80BA91CA90E943E4036
:101BF000B0F49501A601B701C801A8A0BEA0CFA06E
:101C0000D8A4E62CF9A40AA51BA50E9435400E9481
:101C1000BE3DF401678B708F818F928F1CC028A10D
:101C20003EA14FA158A5662D79A58AA59BA5ACA478
:101C3000BEA4CFA4D8A8E9A8FAA80BA91CA90E9401
:101C400035400E94BE3DDC01CB01B058F401878BCA
:101C5000908FA18FB28F26962FAD269727963FADF6
:101C6000279728964FAD289729965FAD29972A96F2
:101C70006FAD2A972B967FAD2B972C968FAD2C9717
:101C80002D969FAD2D970E94BE3D68A379A38AA390
:101C90009BA39B01AC01D40157966D917D918D91D1
:101CA0009C915A970E94EB3CF401678B708F818F57
:101CB000928F2DA93EA94FA958AD69AD7AAD8BADD4
:101CC0009CADADACBEACCFAC2196DFAC21972296DB
:101CD000EFAC22972396FFAC239724960FAD249761
:101CE00025961FAD25970E943E40C0F49501A601A0
:101CF000B701C801ADA8BEA8CFA8D8ACE9ACFAAC72
:101D00000BAD1CAD0E9435400E94BE3DD4015B96D8
:101D10006D937D938D939C935E9726C02DA93EA9CC
:101D20004FA958AD69AD7AAD8BAD9CADADACBEAC35
:101D3000CFAC2196DFAC21972296EFAC2297239669
:101D4000FFAC239724960FAD249725961FAD2597BA
:101D50000E9435400E94BE3DDC01CB01B058F40129
:101D6000838F948FA58FB68F28A139A14AA15BA13B
:101D7000D4015B966D917D918D919C915E970E94AF
:101D8000EB3CF401638F748F858F968FFF962696B8
:101D90002FAD2697208327963FAD2797318328962E
:101DA0004FAD2897428329965FAD299753832A9692
:101DB0008FAD2A9784832B969FAD2B9795832C9676
:101DC000AFAD2C97A6832D96BFAD2D97B7839A8282
:101DD0008982672D70E0A20187E597E0F2C2833027
:101DE000B9F460E1C1010E948E2589018CA19DA1F9
:101DF0000E941C29B8010831110510F468E170E057
:101E000080E090E00E94453B0E94CF1A0C94940120
:101E1000843089F464E0C1010E948E25122F6CE0A9
:101E2000C1010E948E25A901612F8CA19DA10E9454
:101E300029340C949401853009F06AC068E0C1012E
:101E40000E948E25122F60E1C1010E948E25722E04
:101E5000032FC22ED32E7A0168E1C1010E948E2584
:101E600080911F0562962FAF62972F963FAF2F97F5
:101E700060964FAF609761965FAF61970E949C2B11
:101E800010931F0562962FAD6297622F2F963FAD7C
:101E90002F97732F60964FAD6097842F61965FAD3B
:101EA0006197952F0E94453B2FE632E143E85AE3C4
:101EB0000E94A63B4B015C0120E030E0A9010E949A
:101EC0005F3E20E030E040E05FE387FD05C0C501F4
:101ED000B4010E94743C04C0C501B4010E94733C6B
:101EE0000E948D3DCD28CE28CF2811F40C9494016A
:101EF000611571058105910511F40C9494019B0104
:101F0000AC01672D702F812F0E941B2C0C94940123
:101F10008F3F09F08BC068E0C1010E948E25122F0F
:101F200068E1C1010E948E2549015A016B01E82E2A
:101F300098A368E1C1010E948E25F22E032F4EA3C3
:101F40005FA368A779A73C0168E0C1010E948E25C4
:101F5000612F8CA19DA162962FAF62970E94493498
:101F60008FE390E00E946740AC018BE292E0FA01BF
:101F70009183808381E08283138380E13496DF0143
:101F8000382F1D923A95E9F77096DF011D928A95D8
:101F9000E9F782E0FA0185A386A297A2A0A6B1A6DE
:101FA000C2A6D3A6E4A638A135A7F6A607A78EA198
:101FB00080AB9FA191ABA8A5A2ABB9A5B3AB64AA16
:101FC00075AA16AA17AA10AE11AE12AE13AE14AEB1
:101FD00015AE62962FAD629726AF211101C021E0A8
:101FE000FA0126AF62E0812F60964FAF609761964D
:101FF0005FAF61970E94DF2B812F0E94452B609677
:102000004FAD609761965FAD6197DA0194968C93BE
:102010005A834983612F70E0A2018DE497E00E940A
:10202000912841E065E278E2812F26C18E3F09F0D8
:1020300058C068E0C1010E948E25122F68E0C101DE
:102040000E948E2528A368E0C1010E948E252EA340
:1020500068E0C1010E948E25022F68E1C1010E9443
:102060008E252FA338A749A75AA768E1C1010E946E
:102070008E25612F8CA19DA162962FAF62972F961E
:102080003FAF2F9760964FAF609761965FAF6197B4
:102090000E94493468A18CA19DA10E9449348EE31D
:1020A00090E00E9467403C0162962FAD6297822EBD
:1020B0002F963FAD2F97932E60964FAD6097A42E2D
:1020C00061965FAD6197B52ECFA0D8A4E9A4FAA41C
:1020D0002EA148A1612F0E94E2247A826982612F99
:1020E0006CC18D3F09F06AC068E0C1010E948E2575
:1020F000F22E68E1C1010E948E2528A33EA33A0179
:102100004B015C0168E1C1010E948E25C62ED82ECC
:10211000E92E6F2D8CA19DA162962FAF62972F960D
:102120003FAF2F9760964FAF609761965FAF619713
:102130002E967FAF2E970E9449348EE190E00E9448
:1021400067408C018BE392E0F80191838083F282F7
:102150001482158288A186839EA1978360867186EA
:1021600082869386A486B58662962FAD629726876F
:102170002F963FAD2F97378760964FAD6097408B76
:1021800061965FAD6197518BC28A2E967FAD2E9777
:10219000738BD48AE58A168A178A108E118E128E56
:1021A000138E148E158E60E08F2D0E94DF2B8F2DE5
:1021B0000E94802FD80113968C93FCC08C3F09F0AD
:1021C0005FC068E0C1010E948E25F22E68E0C10167
:1021D0000E948E25D22E68E0C1010E948E25E22E3B
:1021E0006F2D8CA19DA10E9449346D2D8CA19DA1C4
:1021F0000E94493486E190E00E9467408C012BE404
:1022000032E0FC0131832083F382D482158216826E
:1022100017821086118612861386148615861686F6
:102220001786108A118A128A138A148AE58A9E2DCB
:10223000E11001C091E0D80155969C9362E08F2D8A
:102240000E94DF2B62E08D2D0E94DF2B8F2D0E94DC
:10225000452B21E0892B09F420E0F80122831A8321
:1022600009836F2D70E0A2018DE497E00E94912810
:1022700043E06BE578E28F2D0E9448190C9494019D
:102280008B3F11F00C94940168E0C1010E948E25EF
:10229000F22E68E0C1010E948E25E22E68E1C101A4
:1022A0000E948E2549015A0168E1C1010E948E25D4
:1022B0006A016F2D8CA19DA162962FAF62972F9618
:1022C0003FAF2F970E94493483E290E00E9467401D
:1022D0008C01EBE5F2E0DC011196FC93EE93129693
:1022E000FC9212971396EC92139714961D921D92DE
:1022F0001D921C9217971B968C921B971C969C9272
:102300001C971D96AC921D971E96BC921E971F9609
:102310001C921F9750961C92509751961C92519761
:1023200052961C92529762962FAD629753962C93B9
:1023300053972F963FAD2F9754963C9354975596AD
:10234000CC9255975696DC92569757961C92579773
:1023500058961C92589759961C9259975A961C92C7
:102360005A975B961C925B975C961C925C975D9665
:102370001C925D975E961C925E975F961C925F978B
:1023800090961C92909791961C92919792961C927F
:1023900060E08F2D0E94DF2B8F2D0E94802F4E2D0D
:1023A00050E031E0841795070CF030E0F8013087F9
:1023B000318732871A8309836F2D70E0A2018DE483
:1023C00097E00E9491280C949401019711F00C94CD
:1023D0009401C1010E9474258436B1F0823711F056
:1023E0000C9494018CA19DA10E94951B2FEF30E0CD
:1023F00030932105209320054BE250E250932305B2
:10240000409322050C9494018CA19DA10E94951BE0
:1024100082E090E09093210580932005AEE7B4E23E
:10242000B0932305A09322050C94940110925C07AD
:1024300010925B07BE016F5F7F4F87E597E00E94B8
:10244000FF288823D1F089819A8100919B05109102
:102450009C0520919D0530919E0540919F055091CE
:10246000A0056091A1057091A205DC01ED91FC91A0
:102470000480F581E02D1995DDCF1092520710925E
:102480005107BE016F5F7F4F8DE497E00E94FF28E8
:10249000882369F189819A81DC01ED91FC910284A4
:1024A000F385E02D19958250843138F4E82FF0E05F
:1024B000E959FD4F80818F3F21F789819A810091F1
:1024C0009B0510919C0520919D0530919E054091A2
:1024D0009F055091A0056091A1057091A205DC01B6
:1024E000ED91FC910480F581E02D1995CACF1092F1
:1024F000520710925107BE016F5F7F4F8DE497E046
:102500000E94FF28882371F089819A81DC01ED9176
:10251000FC9160912205709123050190F081E02DDE
:102520001995E9CFCF5ADF4F0FB6F894DEBF0FBE33
:10253000CDBFDF91CF911F910F91FF90EF90DF9072
:10254000CF90BF90AF909F908F907F906F905F9053
:102550004F903F902F900895E091D607F091D707C4
:1025600084E21994E091D807F091D90785E2199493
:10257000E091DA07F091DB0786E21994E091DC073D
:10258000F091DD0787E21994E091DE07F091DF0713
:1025900088E21994E091E007F091E10789E219944B
:1025A000E091E207F091E3078AE21994E091E407F1
:1025B000F091E5078BE21994E091E607F091E707C7
:1025C0008CE21994E091E807F091E9078DE2199403
:1025D000E091EA07F091EB078EE21994E091EC07A5
:1025E000F091ED078FE21994E091EE07F091EF077B
:1025F00080E31994E091F007F091F10781E31994D9
:10260000E091F207F091F30782E31994E091F40767
:10261000F091F50783E31994E091F607F091F7073D
:1026200084E31994E091F807F091F90785E3199490
:10263000E091FA07F091FB0786E31994E091FC071B
:10264000F091FD0787E31994E091FE07F091FF07F1
:1026500088E31994E0910008F091010889E3199446
:10266000E0910208F09103088AE31994E0910408CC
:10267000F09105088BE31994E0910608F0910708A2
:102680008CE31994E0910808F09109088DE31994FE
:10269000E0910A08F0910B088EE31994E0910C0880
:1026A000F0910D088FE31994E0910E08F0910F0856
:1026B00080E41994E0911008F091110881E41994D4
:1026C000E0911208F091130882E41994E091140843
:1026D000F091150883E41994E0911608F091170819
:1026E00084E41994E0911808F091190885E419948C
:1026F000E0911A08F0911B0886E41994E0911C08F7
:10270000F0911D0887E41994E0911E08F0911F08CC
:1027100088E41994E0912008F091210889E4199443
:10272000E0912208F09123088AE41994E0912408AA
:10273000F09125088BE41994E0912608F091270880
:102740008CE41994E0912808F09129088DE41994FB
:10275000E0912A08F0912B088EE41994E0912C085E
:10276000F0912D088FE41994E0912E08F0912F0834
:1027700080E51994E0913008F091310881E51994D1
:10278000E0913208F091330882E51994E091340821
:10279000F091350883E51994E0913608F0913708F7
:1027A00084E51994E0913808F091390885E5199489
:1027B000E0913A08F0913B0886E51994E0913C08D5
:1027C000F0913D0887E51994E0913E08F0913F08AB
:1027D00088E51994E0914008F091410889E5199441
:1027E000E0914208F09143088AE51994E091440889
:1027F000F09145088BE51994E0914608F09147085F
:102800008CE51994E0914808F09149088DE51994F8
:10281000E0914A08F0914B088EE51994E0914C083C
:10282000F0914D088FE51994E0914E08F0914F0812
:1028300080E61994E0915008F091510881E61994CE
:10284000E0915208F091530882E61994E0915408FF
:10285000F091550883E61994E0915608F0915708D5
:1028600084E61994E0915808F091590885E6199486
:10287000E0915A08F0915B0886E61994E0915C08B3
:10288000F0915D0887E61994E0915E08F0915F0889
:1028900088E61994E0916008F091610889E619943E
:1028A000E0916208F09163088AE61994E091640867
:1028B000F09165088BE61994E0916608F09167083D
:1028C0008CE61994E0916808F09169088DE61994F6
:1028D000E0916A08F0916B088EE61994E0916C081B
:1028E000F0916D088FE61994E0916E08F0916F08F1
:1028F00080E71994E0917008F091710881E71994CC
:10290000E0917208F091730882E71994E0917408DD
:10291000F091750883E71994E0917608F0917708B3
:1029200084E71994E0917808F091790885E7199483
:10293000E0917A08F0917B0886E71994E0917C0891
:10294000F0917D0887E71994E0917E08F0917F0867
:1029500088E71994E0918008F091810889E719943B
:10296000E0918208F09183088AE71994E091840845
:10297000F09185088BE71994E0918608F09187081B
:102980008CE71994E0918808F09189088DE71994F3
:10299000E0918A08F0918B088EE71994E0918C08F9
:1029A000F0918D088FE71994E0918E08F0918F08CF
:1029B00080E81994E0918E07F0918F0780E01994D8
:1029C000FC018281082E000C990B0895FC011482F1
:1029D0000895FC018281082E000C990B0895FC01DA
:1029E000158216820895FC018281082E000C990B35
:1029F0000895FC018281082E000C990B0895DF9246
:102A0000EF92FF920F931F93CF93DF93EC017B0123
:102A1000DD24D3948C819D81AE81BF811816190667
:102A20001A061B06DCF40197A109B1098C839D836A
:102A3000AE83BF8349854D254987411104C00FEFFF
:102A40001FEF980104C001E010E020E030E050E00A
:102A500060E070E08A81F7011995DCCFDF91CF91BA
:102A60001F910F91FF90EF90DF900895FC018381FB
:102A7000082E000C990B08952F923F925F926F924F
:102A80007F928F929F92AF92BF92CF92DF92EF92FE
:102A9000FF920F931F93CF93DF93CDB7DEB762976B
:102AA0000FB6F894DEBF0FBECDBF9A8B898B1B018A
:102AB000F894DC0115968C90159716967C901697D5
:102AC00017966C90179718965C90189719966C91BA
:102AD00019971A967C911A971B968C911B971C96A6
:102AE0009C911C9778945596AC90B12CC12CD12C0C
:102AF000E12CF12C00E010E0282D372D462D552D2E
:102B00000E941B3F992E29833A834B835C836D83FC
:102B10007E838F839887E989FA89F585F987A98962
:102B2000BA891E96BC91BA87E989FA89F785FB872D
:102B3000A989BA895096BC91BC87E989FA89F1893B
:102B4000FD87A989BA895296BC91BE87E989FA891D
:102B5000F389FF87A989BA895496BC91B88B2985D6
:102B60003A854B855C856D857E858F2F9B2FA9804F
:102B7000BA80CB80DC80ED80FE800F81192D0E9411
:102B80003E40B1F109811A812B813C8189859A856A
:102B9000AB85BC85081B190B2A0B3B0B482D572D09
:102BA000662D752DA989BA8913968C91F101199515
:102BB000E981A989BA891D96EC931D97FA811E9621
:102BC000FC931E978B811F968C931F979C81509628
:102BD0009C935097ED815196EC935197FE815296BC
:102BE000FC9352978F8153968C93539754969C9253
:102BF00062960FB6F894DEBF0FBECDBFDF91CF91C6
:102C00001F910F91FF90EF90DF90CF90BF90AF900A
:102C10009F908F907F906F905F903F902F9008953E
:102C20002F923F924F925F926F927F928F929F92DC
:102C3000AF92BF92CF92DF92EF92FF920F931F93CA
:102C4000CF93DF93EC01902E812E722E632E542EA3
:102C5000452E362E272E8B81882359F01B826F81BB
:102C60006E838A810E946D2B8F81882309F449C06D
:102C70003FC08C81882309F461C0A884B984CA84C8
:102C8000DB84EC84FD840E851F85292D382D472D8E
:102C9000562D652D742D832D922D0E943E4008F4F3
:102CA0004DC06E8181E068276E838A810E946D2B02
:102CB0008D81EE818823D1F08F81E817B9F028A1AA
:102CC00039A14AA15BA16CA17DA18EA19FA1AFEF0B
:102CD0000E94294028A339A34AA35BA36CA37DA328
:102CE0008EA39FA3A0E00E94474031F1EE2349F05C
:102CF000288D398D4A8D5B8D6C8D7D8D8E8D9F8D50
:102D000008C0288939894A895B896C897D898E89BF
:102D10009F89A92CB82CC72CD62CE52CF42C032D7C
:102D2000122D0E942040288739874A875B876C874D
:102D30007D878E879F8702C01C82D8CFDF91CF917D
:102D40001F910F91FF90EF90DF90CF90BF90AF90C9
:102D50009F908F907F906F905F904F903F902F90BB
:102D600008952F923F924F925F926F927F928F922F
:102D70009F92AF92BF92CF92DF92EF92FF920F930A
:102D80001F93CF93DF93CDB7DEB72A970FB6F89492
:102D9000DEBF0FBECDBF2C011801D901942E852EA8
:102DA000762E672EFC018481882381F114820783AB
:102DB00030862187B28743875487658776878381EA
:102DC000882349F027A530A941A952A963A974A96C
:102DD00085A996A909C0F201278D30A141A152A170
:102DE00063A174A185A196A151016D01E92CF82C74
:102DF000072D162D0E942040F2012787308B418B32
:102E0000528B638B748B858B968BBBC0F201858153
:102E1000882309F4B6C0A784B088C188D288E38823
:102E2000F488058916899101AD01692D782D872DCA
:102E3000962D0E943E4008F4A4C068867F828E8250
:102E40009D82BC83AB833A8229825A864986F201ED
:102E5000638181E06827638382810E946D2B2981D1
:102E60003A814B815C816D817E818F819885E98576
:102E7000FA85A780B084C184D284E384F484058574
:102E800016850E943540922E832E742E652E562E66
:102E9000472E382E292E83818823F9F0E985FA857B
:102EA00027A530A941A952A963A974A985A996A902
:102EB0000E94BE3D6B017C01292D382D472D562DDA
:102EC000652D742D832D922D0E94BE3DE985FA85D6
:102ED000238D348D458D568D1EC0E985FA85278D4D
:102EE00030A141A152A163A174A185A196A10E9424
:102EF000BE3D6B017C01292D382D472D562D652DAA
:102F0000742D832D922D0E94BE3DE985FA85278977
:102F1000308D418D528D0E94A63B9B01AC01C701B3
:102F2000B6010E94743C0E94583DA980BA80CB80B3
:102F3000DC80ED80FE800F8118850E942040E985AD
:102F4000FA852787308B418B528B638B748B858BF3
:102F5000968BFF96A080B180C280D380E480F580FC
:102F600006811781292D382D472D562D652D742D5D
:102F7000832D922D0E943E4021F018F0E985FA85BC
:102F800015822A960FB6F894DEBF0FBECDBFDF9133
:102F9000CF911F910F91FF90EF90DF90CF90BF9056
:102FA000AF909F908F907F906F905F904F903F90E9
:102FB0002F9008952F923F924F925F926F927F923F
:102FC0008F929F92AF92BF92CF92DF92EF92FF9239
:102FD0000F931F93CF93DF93EC01180129013A015E
:102FE0004B018A810E94802F2B8130E0E1E0821723
:102FF00093070CF4E0E08A85F885E81711F1FF23C8
:1030000049F02B893C894D895E896F89788D898D3E
:103010009A8D08C02B853C854D855E856F857889A6
:1030200089899A8951016201730184010E942040BB
:103030002B8F3C8F4D8F5E8F6F8F78A389A39AA3C0
:10304000EA87EF17D9F0AB8CBC8CCD8CDE8CEF8C83
:10305000F8A009A11AA19101A201B301C4010E9423
:103060003E4060F0E8878C819D81AE81BF810196F2
:10307000A11DB11D8C839D83AE83BF83DF91CF9152
:103080001F910F91FF90EF90DF90CF90BF90AF9086
:103090009F908F907F906F905F904F903F902F9078
:1030A0000895AF92BF92CF92DF92EF92FF920F936B
:1030B0001F93CF93DF93EC018FEFE81202C01A82C7
:1030C00002C0EE2039F18A81811126C08C810E94D4
:1030D000452B892B11F42FEF01C021E0922F990F7E
:1030E000990B392F492F592F692F792F892FAD80AF
:1030F000BE80CF80D884E984FA840B851C850E9429
:1031000020402D833E834F83588769877A878B873A
:103110009C8702C080E001C081E08A83DF91CF916B
:103120001F910F91FF90EF90DF90CF90BF90AF90E5
:103130000895CF92DF92EF92FF921F93CF93DF9388
:10314000EC010E9431316B017C018A810E94452B88
:1031500011E0892B09F410E08B810E94452B9C0122
:1031600088A1811107C0112329F091E0232B09F4D4
:1031700090E09F8F18A38B899C89AD89BE890097A9
:10318000A105B10589F0C816D906EA06FB0660F06C
:1031900060E08DE00E946D2B60E08D810E946D2BC0
:1031A0001B8A1C8A1D8A1E8A8C810E94802F2E8178
:1031B00030E011E0821793070CF410E08AA1181791
:1031C00069F08B8D9C8DAD8DBE8D8C0D9D1DAE1DC2
:1031D000BF1D8F8B988FA98FBA8F1AA389A118173B
:1031E00009F44EC04F89588D698D7A8DC416D50665
:1031F000E606F70608F444C0811119C01123B9F09E
:103200004B855C856D857E858F8D811104C08FEF28
:103210009FEFDC0104C081E090E0A0E0B0E0840F0B
:10322000951FA61FB71F8B879C87AD87BE878B8591
:103230009C85AD85BE854F85588969897A898417B3
:103240009507A607B707D9F40196A11DB11D8F8771
:10325000988BA98BBA8B61E08DE00E946D2B61E0A9
:103260008D810E946D2B8F819885A985BA85C80EA6
:10327000D91EEA1EFB1ECB8ADC8AED8AFE8A19A3C0
:10328000DF91CF911F91FF90EF90DF90CF90089545
:10329000EF92FF921F93CF93DF93EEEFE80FE431AD
:1032A00008F090C0F0E0E959FD4FD081D7FD8AC009
:1032B000142F7B01C82F62E00E94DF2B8C2F90E03F
:1032C000880F991FFC01E257F84FF182E082FC0160
:1032D000E45BF94F80819181D8300CF075C0212FCB
:1032E00030E0ED2FEE0FFF0BEF5FFD4F91838083FA
:1032F0008D2F90E0FC013197E730F105A0F588278C
:10330000EE58FF4F8F4F0C94C03E409169004C7FA8
:10331000412B40936900E89A57C080916900220FC1
:10332000331F220F331F837F282B20936900E99AD4
:103330004BC08091690074E0220F331F7A95E1F74A
:103340008F7C282B20936900EA9A3EC08091690007
:1033500066E0220F331F6A95E1F78F73282B2093C5
:103360006900EB9A31C080916A008C7F412F482B15
:1033700040936A00EC9A28C080916A00220F331FA4
:10338000220F331F837F282B20936A00ED9A1CC0E5
:1033900080916A0044E0220F331F4A95E1F78F7C49
:1033A000282B20936A00EE9A0FC080916A0096E065
:1033B000220F331F9A95E1F78F73282B20936A0011
:1033C000EF9A02C080E001C081E0DF91CF911F91B0
:1033D000FF90EF900895382F2091930590919A05D2
:1033E000213208F049C0809170058111FCCF42E084
:1033F0004093700530936F053FEF30936E05109248
:103400006D0520936C05A3E7B5E04CE455E0FA01A7
:103410003E2F341B321718F43D913193F9CF10929F
:103420004B0520914B05990F922B90934B05909152
:103430004A05913061F410924A0590914B059093A2
:10344000BB009091BC0093FDF8CF95EC01C095EEC8
:103450009093BC00909170059230E1F390916E05CD
:103460009F3F79F080916E05803241F080916E052A
:10347000803331F084E005C081E003C082E001C008
:1034800083E01092720510929305109271050895D1
:10349000DC01ED91FC910190F081E02D6FEF19942A
:1034A000682F80E496E00C942D300E9478420F93B0
:1034B0001F93CF93DF93EC0188819981009729F0C6
:1034C0002A813B812617370788F48B016F5F7F4F76
:1034D0000E949441009761F0998388831B830A833B
:1034E0002C813D81232B11F4FC01108281E001C06D
:1034F00080E0DF91CF911F910F910895FF920F937C
:103500001F93CF93DF931F92CDB7DEB7162F072FF0
:10351000F52E90914C0721E02093710590939A0528
:10352000109272051092930524E0829FC00111242D
:10353000BC016A5F7F4F80E496E049830E942D3092
:10354000812F902FADDF802F90E0AADF4981842F5B
:103550009F2DA6DF8F2D90E0A3DF81E00F90DF91FC
:10356000CF911F910F91FF9036CFCF93C62F90919F
:103570004C0721E02093710590939A0510927205F3
:1035800010929305682F80E496E00E942D306C2FF6
:1035900080E496E00E942D3081E0CF911CCF8F9285
:1035A0009F92AF92BF92CF92DF92EF92FF92CF9312
:1035B00026E636E646E65FE30E94A63B9B01AC01A9
:1035C00060E27CEB8EEB95E40E94EB3C20E030E087
:1035D00040E85FE30E94733C20E030E040E05FE3BE
:1035E0000E94743C0E94FC3D0E94923DF62E809108
:1035F0004C0791E09093710580939A0510927205A3
:103600001092930560E080E496E00E942D3081E006
:10361000E2DE80914C07909170059111FCCF91E012
:103620009093700590936F052FEF20936E05109285
:103630006D0510926C0590934B0590914B05880F8A
:10364000892B80934B0580914A05813061F410925B
:103650004A0580914B058093BB008091BC0083FD9F
:10366000F8CF85EC01C085EE8093BC008091700599
:103670008130E1F380916D05811103C080916D056A
:1036800001C081E0ACE4B5E02AE235E0F9019E2F0B
:10369000921B981718F49D919193F9CF10922905D8
:1036A0008093280580E496E00E94E22FC82F8F7651
:1036B000682F606180E059DF6F2D8EEF56DF6C2F31
:1036C00080E053DF0E9431314B015C0185E0C82E60
:1036D000D12CE12CF12C0E943131DC01CB01881975
:1036E0009909AA09BB09883E9340A105B10558F084
:1036F00021E0C21AD108E108F10888EE880E83E0C3
:10370000981EA11CB11CC114D104E104F10419F7E5
:103710006C2F616A80E0CF91FF90EF90DF90CF90A7
:10372000BF90AF909F908F9020CF0F931F93CF9318
:10373000DF931F921F92CDB7DEB76DE00E94AE34CB
:1037400088E290E00E9467408C0181E992E0F801F4
:10375000918380838DE0828381E08383848385836A
:1037600086838783108611861286138614861586B3
:103770001686178690E5908B83EC818B128A138ACC
:10378000148A158A168A178A908F818F128E138E4B
:10379000148E158E168E178E8AE080A311A212A2A7
:1037A00013A214A215A216A217A261E08DE00E9436
:1037B000DF2B1A830983AE014F5F5F4F6DE070E02E
:1037C00087E597E00E9491280F900F90DF91CF91AD
:1037D0001F910F910895EF92FF920F931F93CF9334
:1037E000DF93FC01248135816115710511F480E0BE
:1037F00018C041155105A1F07B01EC018A01020FAF
:10380000131FB80154DE882391F3288139818C81FC
:103810009D81B701820F931F0E9485421D830C83F7
:1038200081E0DF91CF911F910F91FF90EF9008956C
:10383000CF93DF93EC0188819981009711F00E946A
:10384000FC40198218821D821C821B821A82DF9121
:10385000CF910895EF92FF920F931F93CF93DF9331
:10386000CDB7DEB72D970FB6F894DEBF0FBECDBF34
:103870007C01CB01BA012AE08E010F5F1F4FA80126
:103880000E94FB3AF80101900020E9F73197AF015F
:10389000401B510BB801C7019EDF811102C0C70157
:1038A000C7DFC7012D960FB6F894DEBF0FBECDBFA0
:1038B000DF91CF911F910F91FF90EF900895EF92BC
:1038C000FF920F931F93CF93DF93CDB7DEB72E9761
:1038D0000FB6F894DEBF0FBECDBF7C01CB01BA019D
:1038E0002AE08E010F5F1F4FA8010E94ED3AF801F8
:1038F00001900020E9F73197AF01401B510BB8014F
:10390000C70169DF811102C0C70192DFC7012E968E
:103910000FB6F894DEBF0FBECDBFDF91CF911F91E0
:103920000F91FF90EF900895EF92FF920F931F93E6
:10393000CF93DF93CDB7DEB728970FB6F894DEBFED
:103940000FBECDBF7C01CB014AE08E010F5F1F4F40
:10395000B8010E94E33AF80101900020E9F731979D
:10396000AF01401B510BB801C70135DF811102C007
:10397000C7015EDFC70128960FB6F894DEBF0FBE01
:10398000CDBFDF91CF911F910F91FF90EF900895E0
:10399000EF92FF920F931F93CF93DF9300D01F926C
:1039A000CDB7DEB77C01862F4AE08E010F5F1F4F37
:1039B000B80190E00E94E33AF80101900020E9F795
:1039C0003197AF01401B510BB801C70104DF8111D2
:1039D00002C0C7012DDFC7010F900F900F900F900D
:1039E000DF91CF911F910F91FF90EF900895CF93AA
:1039F000DF93EC016115710559F0FB010190002086
:103A0000E9F73197AF01461B570BE5DE811102C084
:103A1000CE010EDFCE01DF91CF910895FC018081B0
:103A200091810C94FC40EF92FF920F931F93CF93E0
:103A3000DF93FC011182108213821282158214829C
:103A40008617970729F1DB010D911C91119701153C
:103A50001105F1F0EC011496ED90FC901597B7016B
:103A600026DD811108C0CE01DF91CF911F910F910A
:103A7000FF90EF90DDCEFD82EC82B80188819981C4
:103A8000DF91CF911F910F91FF90EF900C948542A1
:103A9000DF91CF911F910F91FF90EF900895EF92DA
:103AA000FF920F931F93CF93DF93EC01198218823B
:103AB0001B821A821D821C826115710511F18B0116
:103AC000FB0101900020E9F731977F01E61AF70A20
:103AD000B701EDDC811108C0CE01DF91CF911F91BC
:103AE0000F91FF90EF90A4CEFD82EC82B801888107
:103AF0009981DF91CF911F910F91FF90EF900C94DE
:103B00008542DF91CF911F910F91FF90EF90089523
:103B10001F920F920FB60F9211240BB60F922F9394
:103B20003F934F935F936F937F938F939F93AF9345
:103B3000BF93EF93FF9380911B0590911C05A0917B
:103B40001D05B0911E05892B8A2B8B2B51F180917D
:103B50001A05E0911805F091190590818927808355
:103B600080911B0590911C05A0911D05B0911E052B
:103B7000181619061A061B06C4F480911B059091AD
:103B80001C05A0911D05B0911E050197A109B10961
:103B900080931B0590931C05A0931D05B0931E05F3
:103BA00004C0809100020E949C2BFF91EF91BF9175
:103BB000AF919F918F917F916F915F914F913F91C5
:103BC0002F910F900BBE0F900FBE0F901F90189566
:103BD000FC018281082E000C990B08950F931F930E
:103BE000CF93DF93EC01FB014B818C81481769F087
:103BF000042F10E0081B1109012E000C220B330BBF
:103C000050E060E070E08A8119958B818C83DF91B0
:103C1000CF911F910F9108958FEF9FEF08958F928D
:103C20009F92AF92BF92DF92EF92FF920F931F93FA
:103C3000CF93DF93EC017B01F8948E849F84A88856
:103C4000B9887894DD24D3944DA55EA56FA578A995
:103C5000481559056A057B05E8F48CA5811105C056
:103C600001E010E020E030E003C00FEF1FEF98010B
:103C70008A81F70119958CA58D258CA78DA59EA508
:103C8000AFA5B8A90196A11DB11D8DA79EA7AFA78D
:103C9000B8ABDACFDF91CF911F910F91FF90EF90EA
:103CA000DF90BF90AF909F908F900895FC0183812B
:103CB000082E000C990B08952F923F924F925F921D
:103CC0006F927F928F929F92AF92BF92CF92DF922C
:103CD000EF92FF920F931F93CF93DF93CDB7DEB791
:103CE00066970FB6F894DEBF0FBECDBF9E8B8D8B4F
:103CF0007A8B698BFC018281882379F0128284A1FE
:103D0000813011F04FEF01C041E0042E000C550B43
:103D1000660B770B8A019B01C2C0ED89FE8996ACC8
:103D2000248135814681578160857185828593859F
:103D3000AFEF0E942940A92CB12CC12CD12CE12C31
:103D4000F12C00E010E00E9420400E94463F592ED6
:103D500029833A834B835C836D837E838F8398872B
:103D6000ED89FE8924853585468557856089718969
:103D700082899389AFEF0E9429400E9420400E94CF
:103D8000463F722E832E942E652EA62F472E382E58
:103D9000B92F29813A814B815C816D817E818F8130
:103DA000952DED89FE89A488B588C688D788E08CD2
:103DB000F18C028D138D0E94354029873A874B87FD
:103DC0005C876D877E878F87988B272D382D492DAF
:103DD000562D6A2F742D832D9B2FA48CB58CC68CE9
:103DE000D78CE0A0F1A002A113A10E943540922F30
:103DF0003B8B5A018981848B8A81858B8B81868B51
:103E00008C81878B8D81808F8E81818F8F81828F36
:103E1000538E748E858E968E678EA0A341A232A299
:103E2000B3A384A129843A844B845C845094409445
:103E300030942094211C311C411C511CC980DA8013
:103E4000EB80FC80F094E094D094C094C11CD11C11
:103E5000E11CF11C882391F092018101B701A601B8
:103E600083819C8BE989FA8919959C89092F1B8983
:103E70009501472D582D692D762D11C0022F1B89D4
:103E80009A01472D582D692D762DED89FE89838164
:103E9000E989FA89199592018101B701A601ED8995
:103EA000FE898381E989FA89199566960FB6F89497
:103EB000DEBF0FBECDBFDF91CF911F910F91FF905D
:103EC000EF90DF90CF90BF90AF909F908F907F90BA
:103ED0006F905F904F903F902F9008954F925F9218
:103EE0006F927F928F929F92AF92BF92CF92DF920A
:103EF000EF92FF920F931F93CF93DF93FC01502E0D
:103F0000612E722E832E942ED52FC62FB72FAE2D55
:103F100044A0AF3F19F4A1E04110A0E085A1A8178B
:103F200031F1A5A3AA2349F026A537A540A951A997
:103F300062A973A984A995A908C026A137A140A5A3
:103F400051A562A573A584A595A5A52CB62CC72C53
:103F5000D82CE92CFD2E0C2F1B2F0E94204026ABC5
:103F600037AB40AF51AF62AF73AF84AF95AFA4151D
:103F700071F1A6A8B7A8C0ACD1ACE2ACF3AC04AD6B
:103F800015AD252D362D472D582D692D7D2F8C2FC4
:103F90009B2F0E943E40D8F0A4A388E0A89FE00D8C
:103FA000F11D1124EF012496248139814A815B811E
:103FB0006C817D818E819F81A1E00E9429402483B4
:103FC00039834A835B836C837D838E839F83DF91F8
:103FD000CF911F910F91FF90EF90DF90CF90BF9006
:103FE000AF909F908F907F906F905F904F900895CB
:103FF0000895CF93DF93EC018A859B85DC01ED91D9
:10400000FC910084F185E02D1995892BA9F38A850F
:104010009B85DC01ED91FC910484F585E02D1995DB
:10402000DF91CF910895DC011296ED91FC911397E9
:10403000309731F014968D919C91159795838483D8
:1040400014960D90BC91A02D109721F01396FC931F
:10405000EE9312970895CF92DF92EF92FF920F9313
:104060001F93CF93DF936801790110161106120692
:1040700013061CF4DFE7D80F0DC0012B022B032B16
:1040800049F0D82FF094E094D094C094C11CD11C76
:10409000E11CF11CC0E08C2F0C2E000C990BAA0B1C
:1040A000BB0B8C159D05AE05BF0574F480912405EE
:1040B00090912505DC01ED91FC910190F081E02DBE
:1040C0006D2F1995CF5FE7CFDF91CF911F910F91A2
:1040D000FF90EF90DF90CF900895AF92BF92CF9274
:1040E000DF92EF920F931F93CF93DF9300D000D016
:1040F000CDB7DEB75C01DC01ED91FC911197C68074
:10410000D78013968C9129833A834B835C836D838C
:104110007E830E94452BE82E29813A814B815C8168
:104120006D817E81C501F601199526960FB6F8942A
:10413000DEBF0FBECDBFDF91CF911F910F91EF90EA
:10414000DF90CF90BF90AF900895AF92BF92CF9283
:10415000DF92EF920F931F93CF93DF9300D000D0A5
:10416000CDB7DEB75C01DC01ED91FC911197C68003
:10417000D78013968C9129833A834B835C836D831C
:104180007E830E94452BE82E29813A814B815C81F8
:104190006D817E81C501F601199526960FB6F894BA
:1041A000DEBF0FBECDBFDF91CF911F910F91EF907A
:1041B000DF90CF90BF90AF9008952F923F924F9293
:1041C0005F926F927F928F929F92AF92BF92CF92A7
:1041D000DF92EF92FF920F931F93CF93DF93EC0147
:1041E000180129013A014B018A810E94802FE82F92
:1041F0008D81FB81E81711F1EF1748F42E853F857B
:10420000488959896A897B898C899D8908C02E8152
:104210003F81488559856A857B858C859D855101BF
:104220006201730184010E9420402E8B3F8B488FD6
:10423000598F6A8F7B8F8C8F9D8FED83EF1781F065
:10424000AE88BF88C88CD98CEA8CFB8C0C8D1D8DF8
:104250009101A201B301C4010E943E4008F0EB832A
:10426000DF91CF911F910F91FF90EF90DF90CF9052
:10427000BF90AF909F908F907F906F905F904F9086
:104280003F902F9008952F923F924F925F926F929E
:104290007F928F929F92AF92BF92CF92DF92EF92D6
:1042A000FF920F931F93CF93DF93CDB7DEB768973D
:1042B0000FB6F894DEBF0FBECDBFDC01D9968C914E
:1042C000D997882309F44EC0DB968C91DB9788231D
:1042D000C1F1DB961C92DB971396ED91FC9114973C
:1042E000918117968C911797892B81831396ED9165
:1042F000FC911497928117968C911797809589233A
:1043000082831596ED91FC911697928118968C9167
:104310001897892B82831396ED91FC9114979181C4
:1043200017968C9117978095892381831396ED9129
:10433000FC911497928117968C91179780958923F9
:1043400082831396ED91FC911497908117968C912E
:104350001797892339F081E0DB968C93DB97D99608
:104360001C92D997D9968C91D997811178C2DB96F6
:104370008C91DB978823C1F1DB961C92DB97139617
:10438000ED91FC911497918117968C911797892B39
:1043900081831396ED91FC911497928117968C91DD
:1043A0001797892B82831596ED91FC911697928130
:1043B00018968C9118978095892382831396ED9196
:1043C000FC911497918117968C911797809589236A
:1043D00081831396ED91FC911497928117968C919D
:1043E00017978095892382837C8B6B8B5A8B498BA3
:1043F000388B2F871E870D87BF8BAE8B1396ED9161
:10440000FC911497808181E0DB968C93DB97D996A1
:104410008C93D997DA968C91DA978F5FDA968C9392
:10442000DA97DC966C91DC970E94633E911132C161
:1044300019968C911997882309F418C119961C9222
:104440001997DD966C9170E080E090E00E94453B0A
:1044500020E030E048EC52E40E94EB3C20E030E009
:1044600040E85FE30E94743C2B013C010E94313123
:104470004B015C019B01A50160E070E080E090E0F1
:10448000AE89BF89D196AC90D197D296BC90D29785
:10449000D396CC90D397D496DC90D497D596EC90C5
:1044A000D597D696FC90D697D7960C91D797D89655
:1044B0001C910E9435400E94BE3D9B01AC01C3018E
:1044C000B2010E94A63B0E94923DEE89FF8962875D
:1044D0007387848795877B018C0120E030E0A901F8
:1044E0006983FA820B831C832D833E834F83588715
:1044F0002488358846885788608C718C828C938C90
:10450000A62F688FBF2DF9860A871B871C861D8AF8
:10451000F0E0E0E09D01A80160E070E080E090E064
:1045200051016201730184010E943E4040F4288ED3
:1045300039864A865B866C867D8AF82DE92DE88C63
:10454000AE89BF895496EC925497F9845596FC92A3
:1045500055970A8556960C9356971B8557961C932C
:1045600057972C8558962C9358973D8959963C938C
:1045700059975A96FC935A975B96EC935B975C9687
:104580002C905C975D963C905D975E964C905E9704
:104590005F965C905F9790966C90909791967C90C8
:1045A000919792968C90929793969C90A981A88FC0
:1045B000BA81B987EB81EA87FC81FB871C861D8A5B
:1045C000F0E0E0E09D014B815C8160E070E080E024
:1045D00090E051016201730184010E943E4040F469
:1045E000288E39864A865B866C867D8AF82DE92D71
:1045F000E88CAE89BF895C96EC925C97F9845D96F5
:10460000FC925D970A855E960C935E971B855F967C
:104610001C935F972C8590962C9390973D8991964B
:104620003C9391979296FC9392979396EC939397E1
:1046300081E09C968C939C9753961C9253979496EA
:104640001C92949795961C92959796961C92969785
:1046500097961C92979798961C92989799961C9269
:1046600099979A961C929A979B961C92AE89BF89AD
:10467000DA961C920E9431318B019C01EE89FF89F0
:1046800061AB12AB23AB34AB15AA16AA17AA10AEB6
:10469000E0E04AC00E9431314B015C019B01A50161
:1046A00060E070E080E090E0AE89BF89D196AC9088
:1046B000D197D296BC90D297D396CC90D397D496DC
:1046C000DC90D497D596EC90D597D696FC90D6975B
:1046D000D7960C91D797D8961C91D8970E943540C1
:1046E0001A96CD90DD90ED90FC901D971601270154
:1046F00056016201E12CF12C00E010E00E943E40E6
:1047000009F008F4ACC0DA961C920E9431318B019A
:104710009C01EE89FF8961AB12AB23AB34AB15AAC8
:1047200016AA17AA10AEE1E0AE89BF8953968C9104
:10473000E81709F45BC0AE89BF895396EC93539791
:10474000EE23C1F054962C91549755963C91559771
:1047500056964C91569757965C91579758966C91F0
:10476000589759967C9159975A968C915A975B967F
:104770009C9119C0AE89BF895C962C915C975D961F
:104780003C915D975E964C915E975F965C915F97CA
:1047900090966C91909791967C91919792968C912E
:1047A000929793969C91AD84BE84CF84D888E988F3
:1047B000FA880B891C890E942040AE89BF89949693
:1047C0002C93949795963C93959796964C939697A1
:1047D00097965C93979798966C93989799967C93F5
:1047E00099979A968C939A979B969C93AE89BF893A
:1047F00052968C915297E81791F19496AC909497B9
:104800009596BC9095979696CC9096979796DC90B7
:1048100097979896EC9098979996FC9099979A9676
:104820000C919A979B961C919B972D853E854F8561
:10483000588969897A898B899C890E943E4078F0E1
:104840005296EC935297FD0186859785A089B18990
:104850000196A11DB11D86879787A08BB18B6896A5
:104860000FB6F894DEBF0FBECDBFDF91CF911F9181
:104870000F91FF90EF90DF90CF90BF90AF909F90FF
:104880008F907F906F905F904F903F902F90089502
:10489000EF92FF920F931F93CF93DF938C01FC0154
:1048A00086819781892B79F0F801C681D781EA80CA
:1048B000FB80E114F104B9F4209729F0CE01B3DBB9
:1048C000CE010E94FC40F801808591850E94FC4049
:1048D000F80182819381DF91CF911F910F91FF9019
:1048E000EF900C94FC40209729F0CE019CDBCE0188
:1048F0000E94FC40F801F782E682D6CF8F929F9209
:10490000AF92BF92CF92DF92EF92FF920F931F93DD
:10491000CF93DF93CDB7DEB72C970FB6F894DEBFF9
:104920000FBECDBF011511052105310509F437C0B2
:10493000680179014A015B01182F6FE075E0CE0133
:104940000196ADD8BE016F5F7F4FCE0107966BD841
:104950006CEE74E0CE0107964AD8612F110F770BE9
:104960000E94941C67EF72E042D8B501A4010E9436
:104970005F1C60E175E03BD8B701A6010E945F1C97
:104980006EE075E034D8BC01809124059091250536
:104990000FD6CE01079642D8CE0101963FD82C966D
:1049A0000FB6F894DEBF0FBECDBFDF91CF911F9140
:1049B0000F91FF90EF90DF90CF90BF90AF909F90BE
:1049C0008F9008958F929F92AF92BF92EF92FF9235
:1049D0000F931F93CF93DF93CDB7DEB77C0181EBAD
:1049E00092E0F701918380836283062E000C770B9F
:1049F000FB01E250FE4FE491F0E0EE0FFF1FE25C9E
:104A0000FE4F85919491F70194838383042E000CCB
:104A1000550BFA01E250FE4F8491E82FF0E0EE0FC3
:104A2000FF1FE25CFE4FA591B491F701B683A58309
:104A3000FB01E256FE4F6491F7016783FA01E256EB
:104A4000FE4F4491F701408781E0818788248A9452
:104A5000982C540182869386A486B586168617867E
:104A6000108A118A828B138A148A158A168A178AE9
:104A7000108E118E128E138E148E158E168E178E2A
:104A800010A211A212A213A214A215A216A217A27A
:104A900010A611A612A613A614A615A616A617A64A
:104AA00010AA81AF12AE83AF24AF05AF1196EC917F
:104AB00011974E2B11964C930E9431318B019C0122
:104AC000F70161AB12AB23AB34AB15AA16AA17AA38
:104AD00010AEDF91CF911F910F91FF90EF90BF909B
:104AE000AF909F908F900895CF93DF93EC018A85CC
:104AF0009B85DC01ED91FC910084F185E02D1995F9
:104B0000892BA9F38A859B85DC01ED91FC910284B8
:104B1000F385E02D1995DF91CF9108952F923F9263
:104B20004F925F926F927F928F929F92AF92BF92BD
:104B3000CF92DF92EF92FF920F931F93CF93DF9369
:104B4000CDB7DEB72B970FB6F894DEBF0FBECDBF43
:104B50009A878987162F262E312CDC018C91B10182
:104B6000681B7109072E000C880B990B0E94473BAC
:104B700020E030E040E05EE30E94A63B0E94D83C8B
:104B80000E94923D662EC984DA84B2E0CB0ED11C1D
:104B900076018E2D8C19861538F489859A85A4DFC7
:104BA000F70181937F01F5CF462C512CE985FA85D9
:104BB000E40DF51D71807B86E985FA850191085029
:104BC00077247394760C472D50E01016B4F5DF016E
:104BD000D12C28E030E0201B310907FD33957D0101
:104BE000EE1AFF0AE416F50694F48C9190E0BC01ED
:104BF000002E02C0759567950A94E2F76D296D93B2
:104C0000022E01C0880F0A94EAF7D82EE8CF6E2E44
:104C1000DA0183E0AA0FBB1F8A95E1F7BC83AB835F
:104C2000EF83F887E0E0F0E0812C912CA12CB12CEF
:104C3000C12CD12CE12CF12C25C0002341F301958E
:104C4000CF01840F951FD12C68E070E0601B7109C3
:104C500007FD73958E179F07D1F20197DC012C9108
:104C600030E0D901002E01C0AA0F0A94EAF7DA2A2F
:104C7000DC01DC92062E02C0359527950A94E2F7F6
:104C8000D22EE8CF38978F8186198715F0F4AF813F
:104C9000B8852D91B887AF8330E040E050E060E008
:104CA00070E080E090E0AB81BC81AE0FBF1FBA83A3
:104CB000A98309810E94E93F822A932AA42AB52A5E
:104CC000C62AD72AE82AF92ADDCFE985FA85808124
:104CD000F12FF81B8F2F082E000C990BE8E0F0E065
:104CE000BF010E946F3EE81BF90BE770FF27FE2F04
:104CF000A985BA85EC93E0E020E030E040E050E0A8
:104D000060E070E080E090E0EF1730F401E00E9496
:104D1000E93F2160EF5FF8CFEB852E23A985BA85A7
:104D200011962C93F2013196EE0FEE0FEE0FF0E09C
:104D3000E219F3099401A501B601C7010E2F0E94E3
:104D40000440B22EC32EB42FA52FF62FE72FD82E56
:104D5000E92EF12C20E030E040E050E060E070E02F
:104D600080E090E0F11631F001E00E94E93F21601F
:104D7000F394F8CF2B213C214B235A236F237E231E
:104D80008D219E212B960FB6F894DEBF0FBECDBFAE
:104D9000DF91CF911F910F91FF90EF90DF90CF9017
:104DA000BF90AF909F908F907F906F905F904F904B
:104DB0003F902F9008952F923F924F925F926F9263
:104DC0007F928F929F92AF92BF92CF92DF92EF929B
:104DD000FF920F931F93CF93DF93CDB7DEB7A797C3
:104DE0000FB6F894DEBF0FBECDBF1C0108A319A3F8
:104DF0002AA33BA34CA35DA36EA37FA3C101F9D853
:104E00008D36D9F180538A3008F45AC0C1016CDE66
:104E1000F5CF93E1951508F45DC0F701E50DF11D9F
:104E200080835394C10160DEC101E3D880538A308E
:104E300080F3112311F1E1E0EC8F812C712C612CB6
:104E4000912C1D8E1E8E1F8E1D8A1E8A1F8A188E03
:104E5000198E1A8E1B8E412C51103EC0FD89F8A36D
:104E60008E8989A39F899AA3E88DEBA3F98DFCA372
:104E70008A8D8DA39B8D9EA34FA2C10135DE28A1F3
:104E800039A14AA15BA16CA17DA18EA19FA1A7968A
:104E90000FB6F894DEBF0FBECDBFDF91CF911F914B
:104EA0000F91FF90EF90DF90CF90BF90AF909F90C9
:104EB0008F907F906F905F904F903F902F900895CC
:104EC000FE0131967F0184E111928A95E9F711E0A4
:104ED000512CAACF10E0A6CF5A94E1E0F0E0EC0FFD
:104EE000FD1FE50DF11D2081AC8CB82CC72CD62CF4
:104EF000E92CFD8C0E8D1F8D30E040E050E060E02D
:104F000070E080E090E00E94C83EAD88BE88CF8807
:104F1000D88CE98CFA8C0B8D142D0E9420402D8B9F
:104F20003E8B4F8B588F698F7A8F8B8F492EA8A01D
:104F3000B9A0CAA0DBA0ECA0FDA00EA11FA10E94F9
:104F40003E4011F008F099CF2C8D382D472D562D6D
:104F5000692D7D8D8E8D9F8D01E00E94E93F390185
:104F60004A01B62FA72FF82FE92F02E00E94E93F50
:104F700059016A017B018C019301A4016B2F7A2FE7
:104F80008F2F9E2F0E9420402C8F832E742E652EF3
:104F9000962E7D8F8E8F9F8F5FCFCF93DF93DC0117
:104FA0001296ED91FC911397E60FF71F80818823ED
:104FB00049F11082660F771F1896ED91FC911997B1
:104FC000E60FF71FC081D18116968D919C9117979E
:104FD000C817D90741F48A819B81009771F0179611
:104FE0009C938E931697C081D181209759F0CE0162
:104FF0001AD8CE010E94FC4005C017961C921E9242
:105000001697F1CF81E0DF91CF910895FC01808167
:10501000918168177907BCF4A281B381A60FB71FED
:105020008C91882389F0660F771F0084F185E02D2D
:10503000E60FF71F0190F081E02D20813181FA0108
:1050400031832083089580E00895EF920F931F939A
:10505000CF93DF931F921F92CDB7DEB7682F70E01A
:10506000AE014F5F5F4F8DE497E0D0DF8823D9F02A
:1050700089819A8100919B0510919C0520919D0545
:1050800030919E0540919F055091A0056091A1052A
:105090007091A205DC01ED91FC910680F781E02D75
:1050A000EE24EA9419950F900F90DF91CF911F9104
:1050B0000F91EF900895EF920F931F93CF93DF938B
:1050C0001F921F92CDB7DEB7682F70E0AE014F5F21
:1050D0005F4F8DE497E09ADF8823D9F089819A8128
:1050E00000919B0510919C0520919D0530919E0596
:1050F00040919F055091A0056091A1057091A20576
:10510000DC01ED91FC910680F781E02DEE24EA941C
:1051100019950F900F90DF91CF911F910F91EF9004
:105120000895EF92FF920F931F93CF93DF93DC01CB
:105130002D913C911197621773070CF058C07A01BA
:105140008C011296ED91FC911397E60FF71F808169
:10515000EB01CC0FDD1F81113CC081E0808386E034
:1051600090E00E946740FC01138212821582148233
:10517000D8011896ED91FC911997EC0FFD1F9183C2
:1051800080831696ED91FC91179718968D919C91BE
:1051900019973097B1F0DC01AC0FBD1F4D915C91B8
:1051A000248135812115310529F0D90113965C93AD
:1051B0004E93129755834483DA011396FC93EE9332
:1051C0001297FC01EC0FFD1F80819181F8019783FC
:1051D0008683D7018D919C91F80160857185C60FFA
:1051E000D71FE881F9819183808381E001C080E04D
:1051F000DF91CF911F910F91FF90EF900895FC01E7
:10520000A481B581109741F012968D919C911397CE
:10521000009721F480E008958681978195838483A7
:105220000480F581E02D3097A9F380819181FB0105
:105230009183808381E00895FC012281222381F102
:105240001282109229051092280510927205109270
:1052500093051092700581E080936F0510924A05C6
:1052600061E084E13AD261E085E137D28091B90012
:105270008E7F8093B9008091B9008D7F8093B900B3
:1052800088E48093B80085E48093BC0060E080E00F
:105290000E94B51A60E070E080E792E40C94CF1AA7
:1052A0000895CF92DF92EF92FF920F931F93CF93C7
:1052B000DF936C017A018B01C0E0D0E0CE15DF05F1
:1052C00089F0D8016D918D01D601ED91FC9101908D
:1052D000F081E02DC6011995892B11F47E0102C0E1
:1052E0002196ECCFC701DF91CF911F910F91FF90D5
:1052F000EF90DF90CF900895FC01538D448D252FC2
:1053000030E0842F90E0821B930B541710F0CF965F
:10531000089501970895FC01918D828D981761F091
:10532000828DDF01A80FB11D5D968C91928D9F5FDC
:105330009F73928F90E008958FEF9FEF0895FC0187
:10534000918D828D981731F0828DE80FF11D858D3A
:1053500090E008958FEF9FEF0895FC01918D228DCD
:10536000892F90E0805C9F4F821B91098F73992752
:10537000089583EA95E0F1DF21E0892B09F420E02C
:10538000822F0895FC01848DDF01A80FB11DA35A5F
:10539000BF4F2C91848D90E001968F739927848F55
:1053A000A689B7892C93A089B1898C9180648C934C
:1053B000938D848D981306C00288F389E02D808137
:1053C0008F7D80830895EF92FF920F931F93CF9369
:1053D000DF93EC0181E0888F9B8D8C8D981305C045
:1053E000E889F989808185FD23C0F62E0B8D10E0B8
:1053F0000F5F1F4F0F731127E02E8C8DE8120BC02B
:105400000FB607FCFACFE889F989808185FFF5CFCF
:10541000CE01B8DFF2CF8B8DFE01E80FF11DE35A0C
:10542000FF4FF0820B8FEA89FB898081806207C081
:10543000EE89FF896083E889F989808180648083AF
:1054400081E090E0DF91CF911F910F91FF90EF905D
:105450000895CF93DF93EC01888D8823C1F0EA890A
:10546000FB89808185FD05C0A889B9898C9186FD5D
:105470000EC00FB607FCF5CF808185FFF2CFA8895B
:10548000B9898C9185FFEDCFCE017CDFE8CFDF912C
:10549000CF91089580E090E0892B19F06ADF8111A7
:1054A00025C080E090E0892B41F080E090E0892BDE
:1054B00021F00E94000081111CC080E090E0892B47
:1054C00041F080E090E0892B21F00E9400008111E2
:1054D00013C080E090E0892BA1F080E090E0892B60
:1054E00081F00E94000081110AC008950E9400000E
:1054F000D8CF0E940000E1CF0E940000EACF0C94B8
:105500000000089590E0FC013197E231F10508F0C8
:105510004EC08827E758FF4F8F4F0C94C03E8091B4
:1055200080008F7703C0809180008F7D8093800002
:10553000089580918000877FF9CF84B58F7702C06E
:1055400084B58F7D84BD08958091B0008F7703C0AE
:105550008091B0008F7D8093B0000895809190007D
:105560008F7707C0809190008F7D03C0809190005D
:10557000877F8093900008958091A0008F7707C067
:105580008091A0008F7D03C08091A000877F8093D1
:10559000A0000895809120018F7707C0809120019D
:1055A0008F7D03C080912001877F80932001089523
:1055B000DC01ED91FC91DB0114964D915C91159706
:1055C0006D917C910280F381E02D19941F920F92CE
:1055D0000FB60F9211240BB60F922F933F934F9358
:1055E0005F936F937F938F939F93AF93BF93EF934B
:1055F000FF9383EA95E0C6DEFF91EF91BF91AF91F3
:105600009F918F917F916F915F914F913F912F91DA
:105610000F900BBE0F900FBE0F901F9018951F920A
:105620000F920FB60F9211240BB60F922F938F93F8
:105630009F93EF93FF93E091B305F091B4058081C0
:10564000E091B905F091BA0582FD12C09081809178
:10565000BC058F5F8F732091BD05821751F0E091DB
:10566000BC05F0E0ED55FA4F958F8093BC0501C065
:105670008081FF91EF919F918F912F910F900BBEA1
:105680000F900FBE0F901F901895CF93DF93282F88
:1056900030E0F901E85AFE4F8491F901E256FE4FDD
:1056A000D491F901E250FE4FC491CC2389F08111CD
:1056B00029DFEC2FF0E0EE0FFF1FE25CFE4FA5911B
:1056C000B491EC91ED2381E090E021F480E002C000
:1056D00080E090E0DF91CF9108951F93CF93DF9307
:1056E000282F30E0F901E85AFE4F8491F901E25683
:1056F000FE4FD491F901E250FE4FC491CC23C1F08A
:10570000162F8111FFDEEC2FF0E0EE0FFF1FEC51A2
:10571000FE4FA591B4918FB7F894111105C09C91DB
:10572000ED2FE095E92302C0EC91ED2BEC938FBFB8
:10573000DF91CF911F9108959091000298133DC081
:10574000E4E4F2E0E4919FEF90930002E230C9F0CC
:1057500050F4EE2399F0E13081F590916F009D7F38
:1057600090936F002AC0E43019F1E0F0E53029F59C
:10577000909173009D7F909373001FC010926E00F4
:105780001CC0909170009D7F9093700091E0909369
:10579000B0009091B100987F94609093B100109206
:1057A000B3000BC0909171009D7F9093710005C074
:1057B000909172009D7F9093720060E08ECFCF93A6
:1057C000DF9390E0FC01E256FE4F2491FC01E25091
:1057D000FE4F8491882361F190E0880F991FFC01AE
:1057E000EC5DFE4FC591D491FC01EC51FE4FA591AB
:1057F000B491611109C09FB7F894888120958223E4
:105800008883EC912E230BC0623061F49FB7F8942B
:105810003881822F809583238883EC912E2B2C93C3
:105820009FBF06C08FB7F894E8812E2B28838FBFC7
:10583000DF91CF9108953F924F925F926F927F9246
:105840008F929F92AF92BF92CF92DF92EF92FF9290
:105850000F931F93CF93DF9300D01F92CDB7DEB786
:1058600029013A0190910002981721F09F3F09F019
:1058700031C304C0E4E4F2E0349004C18093000238
:10588000E4E4F2E0E491EF3F09F424C3E23009F4E8
:1058900080C074F5EE2309F45BC0E13009F0F1C07B
:1058A00010928000109281009091810098609093F6
:1058B000810090918100916090938100282F30E0C9
:1058C000F901E250FE4FE491F0E0EE0FFF1FEC51C2
:1058D000FE4F459154915093760740937507F90117
:1058E000E256FE4FE491E093740733243394CCC026
:1058F000E43009F49EC00CF474C0E53009F0C1C076
:1059000010922001109221019091210198609093B2
:10591000210190912101916090932101482F50E045
:10592000FA01E250FE4FE491F0E0EE0FFF1FEC5160
:10593000FE4F2591349130936D0720936C07FA0147
:10594000E256FE4FE491E0936B07B5E03B2E9CC01E
:1059500014BC15BC94B5926094BD95B5916095BD8D
:10596000282F30E0F901E250FE4FE491F0E0EE0F15
:10597000FF1FEC51FE4F459154915093790740938E
:105980007807F901E256FE4FE491E0937707312C56
:105990007BC01092B0001092B1009091B000926064
:1059A0009093B0009091B10091609093B100282F36
:1059B00030E0F901E250FE4FE491F0E0EE0FFF1FFE
:1059C000EC51FE4F459154915093190540931805A1
:1059D000F901E256FE4FE491E0931A0552E0352EAC
:1059E00053C0109290001092910090919100986095
:1059F0009093910090919100916090939100282F45
:105A000030E0F901E250FE4FE491F0E0EE0FFF1FAD
:105A1000EC51FE4F45915491509373074093720798
:105A2000F901E256FE4FE491E093710723E0322E34
:105A30002BC01092A0001092A1009091A10098603C
:105A40009093A1009091A10091609093A100282FC4
:105A500030E0F901E250FE4FE491F0E0EE0FFF1F5D
:105A6000EC51FE4F459154915093700740936F074E
:105A7000F901E256FE4FE491E0936E0704E0302E08
:105A800003C03E2E37FC26C28B0161E098DE480140
:105A9000A12CB12C832D8D7F09F0BBC060E072E199
:105AA0008AE790E0A50194010E94A43E29833A83ED
:105AB0004B835C8369017A0121E0C21AD108E108B5
:105AC000F1088FEFC816D104E104F10409F008F4DD
:105AD0004CC060E472E48FE090E0A50194010E9464
